{
  "address": "0x185b24b6e32B314182e228e44651616bE312Bb50",
  "abi": [
    {
      "inputs": [
        {
          "internalType": "uint256",
          "name": "blocksToAct",
          "type": "uint256"
        },
        {
          "internalType": "uint256",
          "name": "costToRoll",
          "type": "uint256"
        },
        {
          "internalType": "uint256",
          "name": "costToReroll",
          "type": "uint256"
        }
      ],
      "stateMutability": "nonpayable",
      "type": "constructor"
    },
    {
      "inputs": [],
      "name": "DeadlineExceeded",
      "type": "error"
    },
    {
      "inputs": [
        {
          "internalType": "address",
          "name": "sender",
          "type": "address"
        },
        {
          "internalType": "uint256",
          "name": "balance",
          "type": "uint256"
        },
        {
          "internalType": "uint256",
          "name": "needed",
          "type": "uint256"
        },
        {
          "internalType": "uint256",
          "name": "tokenId",
          "type": "uint256"
        }
      ],
      "name": "ERC1155InsufficientBalance",
      "type": "error"
    },
    {
      "inputs": [
        {
          "internalType": "address",
          "name": "approver",
          "type": "address"
        }
      ],
      "name": "ERC1155InvalidApprover",
      "type": "error"
    },
    {
      "inputs": [
        {
          "internalType": "uint256",
          "name": "idsLength",
          "type": "uint256"
        },
        {
          "internalType": "uint256",
          "name": "valuesLength",
          "type": "uint256"
        }
      ],
      "name": "ERC1155InvalidArrayLength",
      "type": "error"
    },
    {
      "inputs": [
        {
          "internalType": "address",
          "name": "operator",
          "type": "address"
        }
      ],
      "name": "ERC1155InvalidOperator",
      "type": "error"
    },
    {
      "inputs": [
        {
          "internalType": "address",
          "name": "receiver",
          "type": "address"
        }
      ],
      "name": "ERC1155InvalidReceiver",
      "type": "error"
    },
    {
      "inputs": [
        {
          "internalType": "address",
          "name": "sender",
          "type": "address"
        }
      ],
      "name": "ERC1155InvalidSender",
      "type": "error"
    },
    {
      "inputs": [
        {
          "internalType": "address",
          "name": "operator",
          "type": "address"
        },
        {
          "internalType": "address",
          "name": "owner",
          "type": "address"
        }
      ],
      "name": "ERC1155MissingApprovalForAll",
      "type": "error"
    },
    {
      "inputs": [
        {
          "internalType": "uint256",
          "name": "poolID",
          "type": "uint256"
        }
      ],
      "name": "InsufficientItems",
      "type": "error"
    },
    {
      "inputs": [],
      "name": "InsufficientValue",
      "type": "error"
    },
    {
      "inputs": [
        {
          "internalType": "uint256",
          "name": "poolID",
          "type": "uint256"
        }
      ],
      "name": "InvalidItem",
      "type": "error"
    },
    {
      "inputs": [],
      "name": "ReentrancyGuardReentrantCall",
      "type": "error"
    },
    {
      "inputs": [],
      "name": "RollInProgress",
      "type": "error"
    },
    {
      "inputs": [],
      "name": "WaitForTick",
      "type": "error"
    },
    {
      "anonymous": false,
      "inputs": [
        {
          "indexed": true,
          "internalType": "address",
          "name": "account",
          "type": "address"
        },
        {
          "indexed": true,
          "internalType": "address",
          "name": "operator",
          "type": "address"
        },
        {
          "indexed": false,
          "internalType": "bool",
          "name": "approved",
          "type": "bool"
        }
      ],
      "name": "ApprovalForAll",
      "type": "event"
    },
    {
      "anonymous": false,
      "inputs": [
        {
          "indexed": true,
          "internalType": "address",
          "name": "player",
          "type": "address"
        },
        {
          "indexed": true,
          "internalType": "uint256",
          "name": "outcome",
          "type": "uint256"
        },
        {
          "indexed": false,
          "internalType": "uint256",
          "name": "value",
          "type": "uint256"
        }
      ],
      "name": "Award",
      "type": "event"
    },
    {
      "anonymous": false,
      "inputs": [
        {
          "indexed": true,
          "internalType": "address",
          "name": "player",
          "type": "address"
        }
      ],
      "name": "Roll",
      "type": "event"
    },
    {
      "anonymous": false,
      "inputs": [
        {
          "indexed": true,
          "internalType": "uint256",
          "name": "itemType",
          "type": "uint256"
        },
        {
          "indexed": true,
          "internalType": "uint256",
          "name": "terrainType",
          "type": "uint256"
        },
        {
          "indexed": true,
          "internalType": "uint256",
          "name": "tier",
          "type": "uint256"
        },
        {
          "indexed": false,
          "internalType": "uint256",
          "name": "poolID",
          "type": "uint256"
        }
      ],
      "name": "TierUnlocked",
      "type": "event"
    },
    {
      "anonymous": false,
      "inputs": [
        {
          "indexed": true,
          "internalType": "address",
          "name": "operator",
          "type": "address"
        },
        {
          "indexed": true,
          "internalType": "address",
          "name": "from",
          "type": "address"
        },
        {
          "indexed": true,
          "internalType": "address",
          "name": "to",
          "type": "address"
        },
        {
          "indexed": false,
          "internalType": "uint256[]",
          "name": "ids",
          "type": "uint256[]"
        },
        {
          "indexed": false,
          "internalType": "uint256[]",
          "name": "values",
          "type": "uint256[]"
        }
      ],
      "name": "TransferBatch",
      "type": "event"
    },
    {
      "anonymous": false,
      "inputs": [
        {
          "indexed": true,
          "internalType": "address",
          "name": "operator",
          "type": "address"
        },
        {
          "indexed": true,
          "internalType": "address",
          "name": "from",
          "type": "address"
        },
        {
          "indexed": true,
          "internalType": "address",
          "name": "to",
          "type": "address"
        },
        {
          "indexed": false,
          "internalType": "uint256",
          "name": "id",
          "type": "uint256"
        },
        {
          "indexed": false,
          "internalType": "uint256",
          "name": "value",
          "type": "uint256"
        }
      ],
      "name": "TransferSingle",
      "type": "event"
    },
    {
      "anonymous": false,
      "inputs": [
        {
          "indexed": false,
          "internalType": "string",
          "name": "value",
          "type": "string"
        },
        {
          "indexed": true,
          "internalType": "uint256",
          "name": "id",
          "type": "uint256"
        }
      ],
      "name": "URI",
      "type": "event"
    },
    {
      "inputs": [],
      "name": "BlocksToAct",
      "outputs": [
        {
          "internalType": "uint256",
          "name": "",
          "type": "uint256"
        }
      ],
      "stateMutability": "view",
      "type": "function"
    },
    {
      "inputs": [],
      "name": "CostToReroll",
      "outputs": [
        {
          "internalType": "uint256",
          "name": "",
          "type": "uint256"
        }
      ],
      "stateMutability": "view",
      "type": "function"
    },
    {
      "inputs": [],
      "name": "CostToRoll",
      "outputs": [
        {
          "internalType": "uint256",
          "name": "",
          "type": "uint256"
        }
      ],
      "stateMutability": "view",
      "type": "function"
    },
    {
      "inputs": [
        {
          "internalType": "uint256",
          "name": "",
          "type": "uint256"
        },
        {
          "internalType": "uint256",
          "name": "",
          "type": "uint256"
        }
      ],
      "name": "CurrentTier",
      "outputs": [
        {
          "internalType": "uint256",
          "name": "",
          "type": "uint256"
        }
      ],
      "stateMutability": "view",
      "type": "function"
    },
    {
      "inputs": [
        {
          "internalType": "address",
          "name": "",
          "type": "address"
        }
      ],
      "name": "EquippedBeasts",
      "outputs": [
        {
          "internalType": "uint256",
          "name": "",
          "type": "uint256"
        }
      ],
      "stateMutability": "view",
      "type": "function"
    },
    {
      "inputs": [
        {
          "internalType": "address",
          "name": "",
          "type": "address"
        }
      ],
      "name": "EquippedBody",
      "outputs": [
        {
          "internalType": "uint256",
          "name": "",
          "type": "uint256"
        }
      ],
      "stateMutability": "view",
      "type": "function"
    },
    {
      "inputs": [
        {
          "internalType": "address",
          "name": "",
          "type": "address"
        }
      ],
      "name": "EquippedCover",
      "outputs": [
        {
          "internalType": "uint256",
          "name": "",
          "type": "uint256"
        }
      ],
      "stateMutability": "view",
      "type": "function"
    },
    {
      "inputs": [
        {
          "internalType": "address",
          "name": "",
          "type": "address"
        }
      ],
      "name": "EquippedWheels",
      "outputs": [
        {
          "internalType": "uint256",
          "name": "",
          "type": "uint256"
        }
      ],
      "stateMutability": "view",
      "type": "function"
    },
    {
      "inputs": [
        {
          "internalType": "uint256",
          "name": "",
          "type": "uint256"
        }
      ],
      "name": "ImprovedOutcomesCumulativeMass",
      "outputs": [
        {
          "internalType": "uint256",
          "name": "",
          "type": "uint256"
        }
      ],
      "stateMutability": "view",
      "type": "function"
    },
    {
      "inputs": [
        {
          "internalType": "address",
          "name": "",
          "type": "address"
        }
      ],
      "name": "LastRollBlock",
      "outputs": [
        {
          "internalType": "uint256",
          "name": "",
          "type": "uint256"
        }
      ],
      "stateMutability": "view",
      "type": "function"
    },
    {
      "inputs": [
        {
          "internalType": "uint256",
          "name": "",
          "type": "uint256"
        }
      ],
      "name": "UnmodifiedOutcomesCumulativeMass",
      "outputs": [
        {
          "internalType": "uint256",
          "name": "",
          "type": "uint256"
        }
      ],
      "stateMutability": "view",
      "type": "function"
    },
    {
      "inputs": [],
      "name": "accept",
      "outputs": [
        {
          "internalType": "uint256",
          "name": "",
          "type": "uint256"
        },
        {
          "internalType": "uint256",
          "name": "",
          "type": "uint256"
        },
        {
          "internalType": "uint256",
          "name": "",
          "type": "uint256"
        }
      ],
      "stateMutability": "nonpayable",
      "type": "function"
    },
    {
      "inputs": [
        {
          "internalType": "address",
          "name": "account",
          "type": "address"
        },
        {
          "internalType": "uint256",
          "name": "id",
          "type": "uint256"
        }
      ],
      "name": "balanceOf",
      "outputs": [
        {
          "internalType": "uint256",
          "name": "",
          "type": "uint256"
        }
      ],
      "stateMutability": "view",
      "type": "function"
    },
    {
      "inputs": [
        {
          "internalType": "address[]",
          "name": "accounts",
          "type": "address[]"
        },
        {
          "internalType": "uint256[]",
          "name": "ids",
          "type": "uint256[]"
        }
      ],
      "name": "balanceOfBatch",
      "outputs": [
        {
          "internalType": "uint256[]",
          "name": "",
          "type": "uint256[]"
        }
      ],
      "stateMutability": "view",
      "type": "function"
    },
    {
      "inputs": [
        {
          "internalType": "uint256",
          "name": "poolID",
          "type": "uint256"
        },
        {
          "internalType": "uint256",
          "name": "amount",
          "type": "uint256"
        }
      ],
      "name": "burn",
      "outputs": [],
      "stateMutability": "nonpayable",
      "type": "function"
    },
    {
      "inputs": [
        {
          "internalType": "uint256[]",
          "name": "poolIDs",
          "type": "uint256[]"
        },
        {
          "internalType": "uint256[]",
          "name": "amounts",
          "type": "uint256[]"
        }
      ],
      "name": "burnBatch",
      "outputs": [],
      "stateMutability": "nonpayable",
      "type": "function"
    },
    {
      "inputs": [
        {
          "internalType": "uint256",
          "name": "poolID",
          "type": "uint256"
        },
        {
          "internalType": "uint256",
          "name": "numOutputs",
          "type": "uint256"
        }
      ],
      "name": "craft",
      "outputs": [
        {
          "internalType": "uint256",
          "name": "newPoolID",
          "type": "uint256"
        }
      ],
      "stateMutability": "nonpayable",
      "type": "function"
    },
    {
      "inputs": [
        {
          "internalType": "uint256[]",
          "name": "poolIDs",
          "type": "uint256[]"
        }
      ],
      "name": "equip",
      "outputs": [],
      "stateMutability": "nonpayable",
      "type": "function"
    },
    {
      "inputs": [
        {
          "internalType": "uint256",
          "name": "poolID",
          "type": "uint256"
        }
      ],
      "name": "genera",
      "outputs": [
        {
          "internalType": "uint256",
          "name": "itemType",
          "type": "uint256"
        },
        {
          "internalType": "uint256",
          "name": "terrainType",
          "type": "uint256"
        },
        {
          "internalType": "uint256",
          "name": "tier",
          "type": "uint256"
        }
      ],
      "stateMutability": "pure",
      "type": "function"
    },
    {
      "inputs": [
        {
          "internalType": "address",
          "name": "degenerate",
          "type": "address"
        }
      ],
      "name": "hasBonus",
      "outputs": [
        {
          "internalType": "bool",
          "name": "bonus",
          "type": "bool"
        }
      ],
      "stateMutability": "view",
      "type": "function"
    },
    {
      "inputs": [
        {
          "internalType": "address",
          "name": "account",
          "type": "address"
        },
        {
          "internalType": "address",
          "name": "operator",
          "type": "address"
        }
      ],
      "name": "isApprovedForAll",
      "outputs": [
        {
          "internalType": "bool",
          "name": "",
          "type": "bool"
        }
      ],
      "stateMutability": "view",
      "type": "function"
    },
    {
      "inputs": [
        {
          "internalType": "address",
          "name": "",
          "type": "address"
        },
        {
          "internalType": "address",
          "name": "",
          "type": "address"
        },
        {
          "internalType": "uint256[]",
          "name": "",
          "type": "uint256[]"
        },
        {
          "internalType": "uint256[]",
          "name": "",
          "type": "uint256[]"
        },
        {
          "internalType": "bytes",
          "name": "",
          "type": "bytes"
        }
      ],
      "name": "onERC1155BatchReceived",
      "outputs": [
        {
          "internalType": "bytes4",
          "name": "",
          "type": "bytes4"
        }
      ],
      "stateMutability": "nonpayable",
      "type": "function"
    },
    {
      "inputs": [
        {
          "internalType": "address",
          "name": "",
          "type": "address"
        },
        {
          "internalType": "address",
          "name": "",
          "type": "address"
        },
        {
          "internalType": "uint256",
          "name": "",
          "type": "uint256"
        },
        {
          "internalType": "uint256",
          "name": "",
          "type": "uint256"
        },
        {
          "internalType": "bytes",
          "name": "",
          "type": "bytes"
        }
      ],
      "name": "onERC1155Received",
      "outputs": [
        {
          "internalType": "bytes4",
          "name": "",
          "type": "bytes4"
        }
      ],
      "stateMutability": "nonpayable",
      "type": "function"
    },
    {
      "inputs": [
        {
          "internalType": "address",
          "name": "degenerate",
          "type": "address"
        },
        {
          "internalType": "bool",
          "name": "bonus",
          "type": "bool"
        }
      ],
      "name": "outcome",
      "outputs": [
        {
          "internalType": "uint256",
          "name": "",
          "type": "uint256"
        },
        {
          "internalType": "uint256",
          "name": "",
          "type": "uint256"
        },
        {
          "internalType": "uint256",
          "name": "",
          "type": "uint256"
        }
      ],
      "stateMutability": "view",
      "type": "function"
    },
    {
      "inputs": [
        {
          "internalType": "uint256",
          "name": "poolID",
          "type": "uint256"
        }
      ],
      "name": "poolMetadata",
      "outputs": [
        {
          "internalType": "bytes",
          "name": "json",
          "type": "bytes"
        }
      ],
      "stateMutability": "pure",
      "type": "function"
    },
    {
      "inputs": [],
      "name": "roll",
      "outputs": [],
      "stateMutability": "payable",
      "type": "function"
    },
    {
      "inputs": [
        {
          "internalType": "address",
          "name": "from",
          "type": "address"
        },
        {
          "internalType": "address",
          "name": "to",
          "type": "address"
        },
        {
          "internalType": "uint256[]",
          "name": "ids",
          "type": "uint256[]"
        },
        {
          "internalType": "uint256[]",
          "name": "values",
          "type": "uint256[]"
        },
        {
          "internalType": "bytes",
          "name": "data",
          "type": "bytes"
        }
      ],
      "name": "safeBatchTransferFrom",
      "outputs": [],
      "stateMutability": "nonpayable",
      "type": "function"
    },
    {
      "inputs": [
        {
          "internalType": "address",
          "name": "from",
          "type": "address"
        },
        {
          "internalType": "address",
          "name": "to",
          "type": "address"
        },
        {
          "internalType": "uint256",
          "name": "id",
          "type": "uint256"
        },
        {
          "internalType": "uint256",
          "name": "value",
          "type": "uint256"
        },
        {
          "internalType": "bytes",
          "name": "data",
          "type": "bytes"
        }
      ],
      "name": "safeTransferFrom",
      "outputs": [],
      "stateMutability": "nonpayable",
      "type": "function"
    },
    {
      "inputs": [
        {
          "internalType": "uint256",
          "name": "entropy",
          "type": "uint256"
        }
      ],
      "name": "sampleImprovedOutcomesCumulativeMass",
      "outputs": [
        {
          "internalType": "uint256",
          "name": "",
          "type": "uint256"
        }
      ],
      "stateMutability": "view",
      "type": "function"
    },
    {
      "inputs": [
        {
          "internalType": "uint256",
          "name": "entropy",
          "type": "uint256"
        }
      ],
      "name": "sampleUnmodifiedOutcomeCumulativeMass",
      "outputs": [
        {
          "internalType": "uint256",
          "name": "",
          "type": "uint256"
        }
      ],
      "stateMutability": "view",
      "type": "function"
    },
    {
      "inputs": [
        {
          "internalType": "address",
          "name": "operator",
          "type": "address"
        },
        {
          "internalType": "bool",
          "name": "approved",
          "type": "bool"
        }
      ],
      "name": "setApprovalForAll",
      "outputs": [],
      "stateMutability": "nonpayable",
      "type": "function"
    },
    {
      "inputs": [
        {
          "internalType": "bytes4",
          "name": "interfaceID",
          "type": "bytes4"
        }
      ],
      "name": "supportsInterface",
      "outputs": [
        {
          "internalType": "bool",
          "name": "",
          "type": "bool"
        }
      ],
      "stateMutability": "pure",
      "type": "function"
    },
    {
      "inputs": [],
      "name": "unequip",
      "outputs": [],
      "stateMutability": "nonpayable",
      "type": "function"
    },
    {
      "inputs": [
        {
          "internalType": "uint256",
          "name": "poolID",
          "type": "uint256"
        }
      ],
      "name": "uri",
      "outputs": [
        {
          "internalType": "string",
          "name": "",
          "type": "string"
        }
      ],
      "stateMutability": "pure",
      "type": "function"
    },
    {
      "stateMutability": "payable",
      "type": "receive"
    }
  ],
  "transactionHash": "0x59a2519d7500f1abf4b5be43656344410868a5534932a443eec741fa007089c1",
  "args": [
    40,
    100,
    25
  ],
  "numDeployments": 4,
  "solcInputHash": "eb896f7f9e307cfe8e6cd6228200f59a",
  "bytecode": "0x610120604052620800006080908152620e3d6660a052620fd6ff60c052620ffff660e05262100000610100526200003b9060049060056200019e565b506040805160a081018252620729238152620d66896020820152620fc37291810191909152620ffff16060820152621000006080820152620000829060099060056200019e565b503480156200009057600080fd5b506040516200317b3803806200317b833981016040819052620000b391620001ff565b6040518060600160405280602c81526020016200314f602c9139620000d8816200018c565b506001600355600e8390556010829055601181905560005b6004811015620001825760005b60078110156200016c57600081837f4b4325b9305cc4ce94c0e31c581c16ade0808971cfac8470d7a9c67ddbc9f629816200013a84600462000244565b62000146919062000264565b60405190815260200160405180910390a48062000163816200027a565b915050620000fd565b508062000179816200027a565b915050620000f0565b5050505062000407565b60026200019a82826200033b565b5050565b8260058101928215620001d6579160200282015b82811115620001d6578251829062ffffff16905591602001919060010190620001b2565b50620001e4929150620001e8565b5090565b5b80821115620001e45760008155600101620001e9565b6000806000606084860312156200021557600080fd5b8351925060208401519150604084015190509250925092565b634e487b7160e01b600052601160045260246000fd5b80820281158282048414176200025e576200025e6200022e565b92915050565b808201808211156200025e576200025e6200022e565b6000600182016200028f576200028f6200022e565b5060010190565b634e487b7160e01b600052604160045260246000fd5b600181811c90821680620002c157607f821691505b602082108103620002e257634e487b7160e01b600052602260045260246000fd5b50919050565b601f8211156200033657600081815260208120601f850160051c81016020861015620003115750805b601f850160051c820191505b8181101562000332578281556001016200031d565b5050505b505050565b81516001600160401b0381111562000357576200035762000296565b6200036f81620003688454620002ac565b84620002e8565b602080601f831160018114620003a757600084156200038e5750858301515b600019600386901b1c1916600185901b17855562000332565b600085815260208120601f198616915b82811015620003d857888601518255948401946001909101908401620003b7565b5085821015620003f75787850151600019600388901b60f8161c191681555b5050505050600190811b01905550565b612d3880620004176000396000f3fe6080604052600436106101fc5760003560e01c80638534fb461161010d578063be59cce3116100a0578063e32d56901161006f578063e32d569014610627578063e985e9c514610654578063ecefbad814610674578063f23a6e6114610694578063f242432a146106c057600080fd5b8063be59cce3146105a4578063cd5e3c5d146105ba578063cdf2f0ec146105c2578063dd88fa7f146105ef57600080fd5b8063b870fe80116100dc578063b870fe8014610514578063b8f905c81461052a578063b9c2edf71461054a578063bc197c811461055f57600080fd5b80638534fb46146104875780639a0facc2146104a7578063a22cb465146104d4578063b390c0ab146104f457600080fd5b80632eb2c2d61161019057806344dcd1431161015f57806344dcd143146103d75780634e1273f41461040457806350b8aa92146104315780636c08995d1461044757806383ca4b6f1461046757600080fd5b80632eb2c2d6146103575780633a134f78146103775780633a259e6a14610397578063418145cf146103b757600080fd5b80630e89341c116101cc5780630e89341c146102ba57806318ce0a4b146102e75780632852b71c14610307578063289137a11461033757600080fd5b8062fdd58e14610208578063010c9b6e1461023b57806301ffc9a71461026857806303f2f4201461029857600080fd5b3661020357005b600080fd5b34801561021457600080fd5b506102286102233660046122c0565b6106e0565b6040519081526020015b60405180910390f35b34801561024757600080fd5b506102286102563660046122ea565b60146020526000908152604090205481565b34801561027457600080fd5b50610288610283366004612322565b610708565b6040519015158152602001610232565b3480156102a457600080fd5b506102b86102b336600461233f565b610771565b005b3480156102c657600080fd5b506102da6102d53660046123b4565b610ada565b604051610232919061241d565b3480156102f357600080fd5b506102286103023660046123b4565b610b13565b34801561031357600080fd5b5061031c610b2a565b60408051938452602084019290925290820152606001610232565b34801561034357600080fd5b50610228610352366004612430565b610b84565b34801561036357600080fd5b506102b8610372366004612598565b610c9a565b34801561038357600080fd5b5061031c6103923660046123b4565b610d01565b3480156103a357600080fd5b5061031c6103b2366004612642565b610d3e565b3480156103c357600080fd5b506102286103d23660046123b4565b610ea9565b3480156103e357600080fd5b506102286103f23660046122ea565b60166020526000908152604090205481565b34801561041057600080fd5b5061042461041f36600461267e565b610eb9565b6040516102329190612779565b34801561043d57600080fd5b5061022860105481565b34801561045357600080fd5b506102286104623660046123b4565b610f8e565b34801561047357600080fd5b506102b861048236600461278c565b610ff1565b34801561049357600080fd5b506102da6104a23660046123b4565b610ffc565b3480156104b357600080fd5b506102286104c23660046122ea565b600f6020526000908152604090205481565b3480156104e057600080fd5b506102b86104ef366004612642565b611282565b34801561050057600080fd5b506102b861050f366004612430565b61128d565b34801561052057600080fd5b5061022860115481565b34801561053657600080fd5b506102886105453660046122ea565b611298565b34801561055657600080fd5b506102b8611455565b34801561056b57600080fd5b5061058b61057a366004612598565b63bc197c8160e01b95945050505050565b6040516001600160e01b03199091168152602001610232565b3480156105b057600080fd5b50610228600e5481565b6102b86115f7565b3480156105ce57600080fd5b506102286105dd3660046122ea565b60156020526000908152604090205481565b3480156105fb57600080fd5b5061022861060a366004612430565b601260209081526000928352604080842090915290825290205481565b34801561063357600080fd5b506102286106423660046122ea565b60136020526000908152604090205481565b34801561066057600080fd5b5061028861066f3660046127d9565b61167e565b34801561068057600080fd5b5061022861068f3660046123b4565b6116ac565b3480156106a057600080fd5b5061058b6106af36600461280c565b63f23a6e6160e01b95945050505050565b3480156106cc57600080fd5b506102b86106db36600461280c565b6116f8565b6000818152602081815260408083206001600160a01b03861684529091529020545b92915050565b60006301ffc9a760e01b6001600160e01b0319831614806107395750636cdb3d1360e11b6001600160e01b03198316145b806107545750630271189760e51b6001600160e01b03198316145b806107025750506001600160e01b03191663188d442960e31b1490565b610779611757565b61078233611781565b60005b81811015610acb5760006107b08484848181106107a4576107a4612871565b90506020020135610d01565b505090508060000361087c57336000908152601360205260408120541561080c57336000908152601360205260409020546107ed9060019061289d565b905061080c3033836001604051806020016040528060008152506117c9565b610841333087878781811061082357610823612871565b905060200201356001604051806020016040528060008152506117c9565b84848481811061085357610853612871565b90506020020135600161086691906128b0565b3360009081526013602052604090205550610ab8565b806001036109265733600090815260146020526040812054156108d457336000908152601460205260409020546108b59060019061289d565b90506108d43033836001604051806020016040528060008152506117c9565b6108eb333087878781811061082357610823612871565b8484848181106108fd576108fd612871565b90506020020135600161091091906128b0565b3360009081526014602052604090205550610ab8565b806002036109d057336000908152601560205260408120541561097e573360009081526015602052604090205461095f9060019061289d565b905061097e3033836001604051806020016040528060008152506117c9565b610995333087878781811061082357610823612871565b8484848181106109a7576109a7612871565b9050602002013560016109ba91906128b0565b3360009081526015602052604090205550610ab8565b80600303610a7a573360009081526016602052604081205415610a285733600090815260166020526040902054610a099060019061289d565b9050610a283033836001604051806020016040528060008152506117c9565b610a3f333087878781811061082357610823612871565b848484818110610a5157610a51612871565b905060200201356001610a6491906128b0565b3360009081526016602052604090205550610ab8565b838383818110610a8c57610a8c612871565b90506020020135604051633d39bacf60e11b8152600401610aaf91815260200190565b60405180910390fd5b5080610ac3816128c3565b915050610785565b50610ad66001600355565b5050565b6060610aed610ae883610ffc565b611857565b604051602001610afd91906128f8565b6040516020818303038152906040529050919050565b60098160058110610b2357600080fd5b0154905081565b6000806000610b37611757565b6000806000610b49336103b233611298565b925092509250610b5982826119b7565b610b6e336000908152600f6020526040812055565b91945092509050610b7f6001600355565b909192565b6000610b8e611757565b610b9982600261293d565b610ba333856106e0565b1015610bc557604051633bf0eca360e21b815260048101849052602401610aaf565b610bd083601c6128b0565b9050610be73384610be285600261293d565b611a69565b610c0233828460405180602001604052806000815250611ad8565b6000806000610c1084610d01565b60008381526012602090815260408083208584529091529020549295509093509150811115610c8d57600083815260126020908152604080832085845282529182902083905590518581528291849186917f4b4325b9305cc4ce94c0e31c581c16ade0808971cfac8470d7a9c67ddbc9f629910160405180910390a45b5050506107026001600355565b336001600160a01b0386168114801590610cbb5750610cb9868261167e565b155b15610cec5760405163711bec9160e11b81526001600160a01b03808316600483015287166024820152604401610aaf565b610cf98686868686611b35565b505050505050565b60008080610d10601c8561296a565b90506004610d1f601c8661297e565b610d29919061296a565b9150610d3660048561297e565b949193509150565b6001600160a01b0382166000908152600f6020526040812054819081904311610d7a5760405163bfc2936d60e01b815260040160405180910390fd5b610d8385611b95565b6001600160a01b0385166000818152600f6020908152604080832054815190408184015280820194909452805180850382018152606090940190528251920191909120908515610ddd57610dd6826116ac565b9050610de9565b610de682610f8e565b90505b600081600103610e49576000610e1560076e3fffffffffffffffffffffffffffff601487901c1661297e565b90506000610e286004608a87901c61297e565b905080610e3683600461293d565b610e4091906128b0565b92505050610e9b565b81600203610e7b57601054610e6390600181901c906128b0565b90504760061c811115610e7657504760061c5b610e9b565b81600303610e8d57504760061c610e9b565b81600403610e9b57504760011c5b919450925090509250925092565b60048160058110610b2357600080fd5b60608151835114610eea5781518351604051635b05999160e01b815260048101929092526024820152604401610aaf565b6000835167ffffffffffffffff811115610f0657610f06612452565b604051908082528060200260200182016040528015610f2f578160200160208202803683370190505b50905060005b8451811015610f8657602080820286010151610f59906020808402870101516106e0565b828281518110610f6b57610f6b612871565b6020908102919091010152610f7f816128c3565b9050610f35565b509392505050565b6000620fffff82166004820154811015610fab5750600092915050565b600554811015610fbe5750600192915050565b600654811015610fd15750600292915050565b600460035b0154811015610fe85750600392915050565b50600492915050565b610ad6338383611bdb565b6060600080600061100c85610d01565b925092509250600061101d82611c26565b60405160200161102d9190612992565b60405160208183030381529060405290506060808460000361106f5760405180604001604052806006815260200165706c61696e7360d01b815250915061117c565b8460010361109d5760405180604001604052806006815260200165199bdc995cdd60d21b815250915061117c565b846002036110ca576040518060400160405280600581526020016407377616d760dc1b815250915061117c565b846003036110f757604051806040016040528060058152602001643bb0ba32b960d91b815250915061117c565b84600403611127576040518060400160405280600881526020016736b7bab73a30b4b760c11b815250915061117c565b84600503611155576040518060400160405280600681526020016519195cd95c9d60d21b815250915061117c565b8460060361117c576040518060400160405280600381526020016269636560e81b81525091505b856000036111a6575060408051808201909152600581526431b7bb32b960d91b6020820152611221565b856001036111cf5750604080518082019091526004815263626f647960e01b6020820152611221565b856002036111fa5750604080518082019091526006815265776865656c7360d01b6020820152611221565b85600303611221575060408051808201909152600681526562656173747360d01b60208201525b828282604051602001611236939291906129bf565b60405160208183030381529060405292508261125185611c26565b83836040516020016112669493929190612a19565b6040516020818303038152906040529650505050505050919050565b610ad6338383611cb9565b610ad6338383611a69565b6001600160a01b0381166000908152601360209081526040808320546014835281842054601584528285205460169094529184205490929083158015906112de57508215155b80156112e957508115155b80156112f457508015155b1561144c578361130381612bc9565b945050828061131190612bc9565b935050818061131f90612bc9565b925050808061132d90612bc9565b91505060008060008061133f88610d01565b60008381526012602090815260408083208584529091529020549295509350915082900361136c57600198505b80935088156113b75761137e87610d01565b600083815260126020908152604080832085845290915290205492955093509150821415806113ad5750838114155b156113b757600098505b88156113ff576113c686610d01565b600083815260126020908152604080832085845290915290205492955093509150821415806113f55750838114155b156113ff57600098505b88156114475761140e85610d01565b6000838152601260209081526040808320858452909152902054929550935091508214158061143d5750838114155b1561144757600098505b505050505b50505050919050565b61145d611757565b61146633611781565b33600090815260136020526040812054156114c757336000908152601360205260409020546114979060019061289d565b90506114b63033836001604051806020016040528060008152506117c9565b336000908152601360205260408120555b336000908152601460205260409020541561152857336000908152601460205260409020546114f89060019061289d565b90506115173033836001604051806020016040528060008152506117c9565b336000908152601460205260408120555b336000908152601560205260409020541561158957336000908152601560205260409020546115599060019061289d565b90506115783033836001604051806020016040528060008152506117c9565b336000908152601560205260408120555b33600090815260166020526040902054156115ea57336000908152601660205260409020546115ba9060019061289d565b90506115d93033836001604051806020016040528060008152506117c9565b336000908152601660205260408120555b506115f56001600355565b565b601054600e54336000908152600f602052604090205461161791906128b0565b431161162257506011545b803410156116435760405163044044a560e21b815260040160405180910390fd5b336000818152600f6020526040808220439055517f663b85167cccb9640fb0a935c4853ea50b0f3dd07d2590ca19942153136cef569190a250565b6001600160a01b03918216600090815260016020908152604080832093909416825291909152205460ff1690565b6000620fffff821660098201548110156116c95750600092915050565b600a548110156116dc5750600192915050565b600b548110156116ef5750600292915050565b60096003610fd6565b336001600160a01b03861681148015906117195750611717868261167e565b155b1561174a5760405163711bec9160e11b81526001600160a01b03808316600483015287166024820152604401610aaf565b610cf986868686866117c9565b60026003540361177a57604051633ee5aeb560e01b815260040160405180910390fd5b6002600355565b600e546001600160a01b0382166000908152600f60205260409020546117a791906128b0565b43116117c65760405163411931ff60e01b815260040160405180910390fd5b50565b6001600160a01b0384166117f357604051632bfa23e760e11b815260006004820152602401610aaf565b6001600160a01b03851661181c57604051626a0d4560e21b815260006004820152602401610aaf565b6040805160018082526020820186905281830190815260608201859052608082019092529061184e8787848487611d4f565b50505050505050565b6060815160000361187657505060408051602081019091526000815290565b6000604051806060016040528060408152602001612cc360409139905060006003845160026118a591906128b0565b6118af919061296a565b6118ba90600461293d565b67ffffffffffffffff8111156118d2576118d2612452565b6040519080825280601f01601f1916602001820160405280156118fc576020820181803683370190505b50905060018201602082018586518701602081018051600082525b82841015611972576003840193508351603f8160121c168701518653600186019550603f81600c1c168701518653600186019550603f8160061c168701518653600186019550603f8116870151865350600185019450611917565b905250508551600390066001811461199157600281146119a4576119ac565b603d6001830353603d60028303536119ac565b603d60018303535b509195945050505050565b816001036119e0576119db3382600160405180602001604052806000815250611ad8565b611a2e565b81600214806119ef5750816003145b806119fa5750816004145b15611a2e57604051339082156108fc029083906000818181858888f19350505050158015611a2c573d6000803e3d6000fd5b505b604051818152829033907f1187560d7b166b3122e71aedb88f19cf2f33b2d141b513fde3ca2562d19d1bcb9060200160405180910390a35050565b6001600160a01b038316611a9257604051626a0d4560e21b815260006004820152602401610aaf565b604080516001808252602082018590528183019081526060820184905260a08201909252600060808201818152919291611ad191879185908590611d4f565b5050505050565b6001600160a01b038416611b0257604051632bfa23e760e11b815260006004820152602401610aaf565b60408051600180825260208201869052818301908152606082018590526080820190925290610cf9600087848487611d4f565b6001600160a01b038416611b5f57604051632bfa23e760e11b815260006004820152602401610aaf565b6001600160a01b038516611b8857604051626a0d4560e21b815260006004820152602401610aaf565b611ad18585858585611d4f565b600e546001600160a01b0382166000908152600f6020526040902054611bbb91906128b0565b4311156117c65760405163559895a360e01b815260040160405180910390fd5b6001600160a01b038316611c0457604051626a0d4560e21b815260006004820152602401610aaf565b611c21836000848460405180602001604052806000815250611d4f565b505050565b60606000611c3383611da2565b600101905060008167ffffffffffffffff811115611c5357611c53612452565b6040519080825280601f01601f191660200182016040528015611c7d576020820181803683370190505b5090508181016020015b600019016f181899199a1a9b1b9c1cb0b131b232b360811b600a86061a8153600a8504945084611c8757509392505050565b6001600160a01b038216611ce25760405162ced3e160e81b815260006004820152602401610aaf565b6001600160a01b03838116600081815260016020908152604080832094871680845294825291829020805460ff191686151590811790915591519182527f17307eab39ab6107e8899845ad3d59bd9653f200f220920489ca2b5937696c31910160405180910390a3505050565b611d5b85858585611e7a565b6001600160a01b03841615611ad15782513390600103611d945760208481015190840151611d8d838989858589612097565b5050610cf9565b610cf98187878787876121bb565b60008072184f03e93ff9f4daa797ed6e38ed64bf6a1f0160401b8310611de15772184f03e93ff9f4daa797ed6e38ed64bf6a1f0160401b830492506040015b6d04ee2d6d415b85acef81000000008310611e0d576d04ee2d6d415b85acef8100000000830492506020015b662386f26fc100008310611e2b57662386f26fc10000830492506010015b6305f5e1008310611e43576305f5e100830492506008015b6127108310611e5757612710830492506004015b60648310611e69576064830492506002015b600a83106107025760010192915050565b8051825114611ea95781518151604051635b05999160e01b815260048101929092526024820152604401610aaf565b3360005b8351811015611fb8576020818102858101820151908501909101516001600160a01b03881615611f60576000828152602081815260408083206001600160a01b038c16845290915290205481811015611f39576040516303dee4c560e01b81526001600160a01b038a166004820152602481018290526044810183905260648101849052608401610aaf565b6000838152602081815260408083206001600160a01b038d16845290915290209082900390555b6001600160a01b03871615611fa5576000828152602081815260408083206001600160a01b038b16845290915281208054839290611f9f9084906128b0565b90915550505b505080611fb1906128c3565b9050611ead565b5082516001036120395760208301516000906020840151909150856001600160a01b0316876001600160a01b0316846001600160a01b03167fc3d58168c5ae7397731d063d5bbf3d657854427343f4c083240f7aacaa2d0f62858560405161202a929190918252602082015260400190565b60405180910390a45050611ad1565b836001600160a01b0316856001600160a01b0316826001600160a01b03167f4a39dc06d4c0dbc64b70af90fd698a233a518aa5d07e595d983b8c0526c8f7fb8686604051612088929190612be0565b60405180910390a45050505050565b6001600160a01b0384163b15610cf95760405163f23a6e6160e01b81526001600160a01b0385169063f23a6e61906120db9089908990889088908890600401612c0e565b6020604051808303816000875af1925050508015612116575060408051601f3d908101601f1916820190925261211391810190612c53565b60015b61217f573d808015612144576040519150601f19603f3d011682016040523d82523d6000602084013e612149565b606091505b50805160000361217757604051632bfa23e760e11b81526001600160a01b0386166004820152602401610aaf565b805181602001fd5b6001600160e01b0319811663f23a6e6160e01b1461184e57604051632bfa23e760e11b81526001600160a01b0386166004820152602401610aaf565b6001600160a01b0384163b15610cf95760405163bc197c8160e01b81526001600160a01b0385169063bc197c81906121ff9089908990889088908890600401612c70565b6020604051808303816000875af192505050801561223a575060408051601f3d908101601f1916820190925261223791810190612c53565b60015b612268573d808015612144576040519150601f19603f3d011682016040523d82523d6000602084013e612149565b6001600160e01b0319811663bc197c8160e01b1461184e57604051632bfa23e760e11b81526001600160a01b0386166004820152602401610aaf565b80356001600160a01b03811681146122bb57600080fd5b919050565b600080604083850312156122d357600080fd5b6122dc836122a4565b946020939093013593505050565b6000602082840312156122fc57600080fd5b612305826122a4565b9392505050565b6001600160e01b0319811681146117c657600080fd5b60006020828403121561233457600080fd5b81356123058161230c565b6000806020838503121561235257600080fd5b823567ffffffffffffffff8082111561236a57600080fd5b818501915085601f83011261237e57600080fd5b81358181111561238d57600080fd5b8660208260051b85010111156123a257600080fd5b60209290920196919550909350505050565b6000602082840312156123c657600080fd5b5035919050565b60005b838110156123e85781810151838201526020016123d0565b50506000910152565b600081518084526124098160208601602086016123cd565b601f01601f19169290920160200192915050565b60208152600061230560208301846123f1565b6000806040838503121561244357600080fd5b50508035926020909101359150565b634e487b7160e01b600052604160045260246000fd5b604051601f8201601f1916810167ffffffffffffffff8111828210171561249157612491612452565b604052919050565b600067ffffffffffffffff8211156124b3576124b3612452565b5060051b60200190565b600082601f8301126124ce57600080fd5b813560206124e36124de83612499565b612468565b82815260059290921b8401810191818101908684111561250257600080fd5b8286015b8481101561251d5780358352918301918301612506565b509695505050505050565b600082601f83011261253957600080fd5b813567ffffffffffffffff81111561255357612553612452565b612566601f8201601f1916602001612468565b81815284602083860101111561257b57600080fd5b816020850160208301376000918101602001919091529392505050565b600080600080600060a086880312156125b057600080fd5b6125b9866122a4565b94506125c7602087016122a4565b9350604086013567ffffffffffffffff808211156125e457600080fd5b6125f089838a016124bd565b9450606088013591508082111561260657600080fd5b61261289838a016124bd565b9350608088013591508082111561262857600080fd5b5061263588828901612528565b9150509295509295909350565b6000806040838503121561265557600080fd5b61265e836122a4565b91506020830135801515811461267357600080fd5b809150509250929050565b6000806040838503121561269157600080fd5b823567ffffffffffffffff808211156126a957600080fd5b818501915085601f8301126126bd57600080fd5b813560206126cd6124de83612499565b82815260059290921b840181019181810190898411156126ec57600080fd5b948201945b8386101561271157612702866122a4565b825294820194908201906126f1565b9650508601359250508082111561272757600080fd5b50612734858286016124bd565b9150509250929050565b600081518084526020808501945080840160005b8381101561276e57815187529582019590820190600101612752565b509495945050505050565b602081526000612305602083018461273e565b6000806040838503121561279f57600080fd5b823567ffffffffffffffff808211156127b757600080fd5b6127c3868387016124bd565b9350602085013591508082111561272757600080fd5b600080604083850312156127ec57600080fd5b6127f5836122a4565b9150612803602084016122a4565b90509250929050565b600080600080600060a0868803121561282457600080fd5b61282d866122a4565b945061283b602087016122a4565b93506040860135925060608601359150608086013567ffffffffffffffff81111561286557600080fd5b61263588828901612528565b634e487b7160e01b600052603260045260246000fd5b634e487b7160e01b600052601160045260246000fd5b8181038181111561070257610702612887565b8082018082111561070257610702612887565b6000600182016128d5576128d5612887565b5060010190565b600081516128ee8185602086016123cd565b9290920192915050565b7f646174613a6170706c69636174696f6e2f6a736f6e3b6261736536342c00000081526000825161293081601d8501602087016123cd565b91909101601d0192915050565b808202811582820484141761070257610702612887565b634e487b7160e01b600052601260045260246000fd5b60008261297957612979612954565b500490565b60008261298d5761298d612954565b500690565b6402a34b2b9160dd1b8152600082516129b28160058501602087016123cd565b9190910160050192915050565b600084516129d18184602089016123cd565b8083019050600160fd1b80825285516129f1816001850160208a016123cd565b60019201918201528351612a0c8160028401602088016123cd565b0160020195945050505050565b693d913730b6b2911d101160b11b81528451600090612a3f81600a850160208a016123cd565b7f222c2022646563696d616c73223a20302c202261747472696275746573223a20600a918401918201527f5b7b2274726169745f74797065223a202274696572222c2022646973706c6179602a8201527f5f74797065223a20226e756d626572222c202276616c7565223a202200000000604a8201528551612ac8816066840160208a016123cd565b7f227d2c207b2274726169745f74797065223a20227465727261696e5f74797065606692909101918201527f222c2022646973706c61795f74797065223a2022737472696e67222c20227661608682015266363ab2911d101160c91b60a68201528451612b3c8160ad8401602089016123cd565b612bbd612bad612ba760ad848601017f227d2c207b2274726169745f74797065223a20226974656d5f74797065222c2081527f22646973706c61795f74797065223a2022737472696e67222c202276616c7565602082015263111d101160e11b604082015260440190565b876128dc565b63227d5d7d60e01b815260040190565b98975050505050505050565b600081612bd857612bd8612887565b506000190190565b604081526000612bf3604083018561273e565b8281036020840152612c05818561273e565b95945050505050565b6001600160a01b03868116825285166020820152604081018490526060810183905260a060808201819052600090612c48908301846123f1565b979650505050505050565b600060208284031215612c6557600080fd5b81516123058161230c565b6001600160a01b0386811682528516602082015260a060408201819052600090612c9c9083018661273e565b8281036060840152612cae818661273e565b90508281036080840152612bbd81856123f156fe4142434445464748494a4b4c4d4e4f505152535455565758595a6162636465666768696a6b6c6d6e6f707172737475767778797a303132333435363738392b2fa2646970667358221220030b89eac3d541be3c097e776202e43bbcba44ba2a69e84c17a21e813b0e767a64736f6c6343000814003368747470733a2f2f6769746875622e636f6d2f6d6f6f6e73747265616d2d746f2f646567656e2d747261696c",
  "devdoc": {
    "author": "Moonstream Engineering (engineering@moonstream.to)",
    "errors": {
      "ERC1155InsufficientBalance(address,uint256,uint256,uint256)": [
        {
          "details": "Indicates an error related to the current `balance` of a `sender`. Used in transfers.",
          "params": {
            "balance": "Current balance for the interacting account.",
            "needed": "Minimum amount required to perform a transfer.",
            "sender": "Address whose tokens are being transferred.",
            "tokenId": "Identifier number of a token."
          }
        }
      ],
      "ERC1155InvalidApprover(address)": [
        {
          "details": "Indicates a failure with the `approver` of a token to be approved. Used in approvals.",
          "params": {
            "approver": "Address initiating an approval operation."
          }
        }
      ],
      "ERC1155InvalidArrayLength(uint256,uint256)": [
        {
          "details": "Indicates an array length mismatch between ids and values in a safeBatchTransferFrom operation. Used in batch transfers.",
          "params": {
            "idsLength": "Length of the array of token identifiers",
            "valuesLength": "Length of the array of token amounts"
          }
        }
      ],
      "ERC1155InvalidOperator(address)": [
        {
          "details": "Indicates a failure with the `operator` to be approved. Used in approvals.",
          "params": {
            "operator": "Address that may be allowed to operate on tokens without being their owner."
          }
        }
      ],
      "ERC1155InvalidReceiver(address)": [
        {
          "details": "Indicates a failure with the token `receiver`. Used in transfers.",
          "params": {
            "receiver": "Address to which tokens are being transferred."
          }
        }
      ],
      "ERC1155InvalidSender(address)": [
        {
          "details": "Indicates a failure with the token `sender`. Used in transfers.",
          "params": {
            "sender": "Address whose tokens are being transferred."
          }
        }
      ],
      "ERC1155MissingApprovalForAll(address,address)": [
        {
          "details": "Indicates a failure with the `operator`s approval. Used in transfers.",
          "params": {
            "operator": "Address that may be allowed to operate on tokens without being their owner.",
            "owner": "Address of the current owner of a token."
          }
        }
      ],
      "ReentrancyGuardReentrantCall()": [
        {
          "details": "Unauthorized reentrant call."
        }
      ]
    },
    "events": {
      "ApprovalForAll(address,address,bool)": {
        "details": "Emitted when `account` grants or revokes permission to `operator` to transfer their tokens, according to `approved`."
      },
      "TransferBatch(address,address,address,uint256[],uint256[])": {
        "details": "Equivalent to multiple {TransferSingle} events, where `operator`, `from` and `to` are the same for all transfers."
      },
      "TransferSingle(address,address,address,uint256,uint256)": {
        "details": "Emitted when `value` amount of tokens of type `id` are transferred from `from` to `to` by `operator`."
      },
      "URI(string,uint256)": {
        "details": "Emitted when the URI for token type `id` changes to `value`, if it is a non-programmatic URI. If an {URI} event was emitted for `id`, the standard https://eips.ethereum.org/EIPS/eip-1155#metadata-extensions[guarantees] that `value` will equal the value returned by {IERC1155MetadataURI-uri}."
      }
    },
    "kind": "dev",
    "methods": {
      "accept()": {
        "returns": {
          "_0": "entropy The randomness that was used to determine the outcome of the player's last roll",
          "_1": "_outcome The outcome of the player's last roll - this is 0, 1, 2, 3, or 4 and represents an index in either `UnmodifiedOutcomesCumulativeMass` or `ImprovedOutcomesCumulativeMass` (depending on whether a bonus was applied)",
          "_2": "reward This represents a numerical parameter representing the reward that the player should receive. If the `_outcome` was `0`, this value is irrelevant and should be ignored. If the `_outcome` was `1`, signifying that the player will receive an item, this value is the ERC1155 `tokenID` of the item that will be transferred to the player if they accept the outcome, if the `_outcome` was `2`, `3`, or `4`, this value is the amount of native tokens that will be transferred to the player if they accept the outcome."
        }
      },
      "balanceOf(address,uint256)": {
        "details": "See {IERC1155-balanceOf}."
      },
      "balanceOfBatch(address[],uint256[])": {
        "details": "See {IERC1155-balanceOfBatch}. Requirements: - `accounts` and `ids` must have the same length."
      },
      "constructor": {
        "params": {
          "blocksToAct": "The number of blocks a player has to either reroll or accept the outcome of their current roll.",
          "costToReroll": "The cost in the finest denomination of the native token on the chain to reroll.",
          "costToRoll": "The cost in the finest denomination of the native token on the chain to roll."
        }
      },
      "isApprovedForAll(address,address)": {
        "details": "See {IERC1155-isApprovedForAll}."
      },
      "outcome(address,bool)": {
        "params": {
          "bonus": "This boolean signifies whether the outcome should be sampled from the unmodified or the improved outcome distribution",
          "degenerate": "The address of the player"
        },
        "returns": {
          "_0": "entropy The randomness that was used to determine the outcome of the player's last roll",
          "_1": "_outcome The outcome of the player's last roll - this is 0, 1, 2, 3, or 4 and represents an index in either `UnmodifiedOutcomesCumulativeMass` or `ImprovedOutcomesCumulativeMass` (depending on whether a bonus was applied)",
          "_2": "reward This represents a numerical parameter representing the reward that the player should receive. If the `_outcome` was `0`, this value is irrelevant and should be ignored. If the `_outcome` was `1`, signifying that the player will receive an item, this value is the ERC1155 `tokenID` of the item that will be transferred to the player if they accept the outcome, if the `_outcome` was `2`, `3`, or `4`, this value is the amount of native tokens that will be transferred to the player if they accept the outcome."
        }
      },
      "safeBatchTransferFrom(address,address,uint256[],uint256[],bytes)": {
        "details": "See {IERC1155-safeBatchTransferFrom}."
      },
      "safeTransferFrom(address,address,uint256,uint256,bytes)": {
        "details": "See {IERC1155-safeTransferFrom}."
      },
      "setApprovalForAll(address,bool)": {
        "details": "See {IERC1155-setApprovalForAll}."
      }
    },
    "title": "Jackpot Junction game contract",
    "version": 1
  },
  "userdoc": {
    "errors": {
      "DeadlineExceeded()": [
        {
          "notice": "Signifies that the player is no longer able to act because too many blocks elapsed since their last action."
        }
      ],
      "InsufficientItems(uint256)": [
        {
          "notice": "Signifies that the player does not have enough items in their possession to perform an action."
        }
      ],
      "InsufficientValue()": [
        {
          "notice": "Signifies that the player has not provided enough value to perform the action."
        }
      ],
      "InvalidItem(uint256)": [
        {
          "notice": "Signifies that the player attempted to use an invalid item to perform a certain action."
        }
      ],
      "RollInProgress()": [
        {
          "notice": "Signifies that a player cannot take an action that requires them to be out of a roll because it is too soon since they rolled. This error is raised when a player tries to equip or unequip items while they are in the middle of a roll."
        }
      ],
      "WaitForTick()": [
        {
          "notice": "This error is raised to signify that the player needs to wait for at least one more block to elapse."
        }
      ]
    },
    "events": {
      "Award(address,uint256,uint256)": {
        "notice": "Fired when a player accepts the outcome of a roll."
      },
      "Roll(address)": {
        "notice": "Fired when a player rolls (and rerolls)."
      },
      "TierUnlocked(uint256,uint256,uint256,uint256)": {
        "notice": "Fired when a new tier is unlocked for the givem itemType and terrainType. Specifies the tier and its pool ID."
      }
    },
    "kind": "user",
    "methods": {
      "BlocksToAct()": {
        "notice": "How many blocks a player has to act (reroll/accept)."
      },
      "CostToReroll()": {
        "notice": "Cost (finest denomination of native token on the chain) to reroll."
      },
      "CostToRoll()": {
        "notice": "Cost (finest denomination of native token on the chain) to roll."
      },
      "CurrentTier(uint256,uint256)": {
        "notice": "Specifies the largest tier that has been unlocked for a given (itemType, terrainType) pair.Item types: 0 (wagon cover), 1 (wagon body), 2 (wagon wheel), 3 (beast)Terrain types: 0 (plains), 1 (forest), 2 (swamp), 3 (water), 4 (mountain), 5 (desert), 6 (ice)Encoding of ERC1155 pool IDs: tier*28 + terrainType*4 + itemTypeitemType => terrainType => tier"
      },
      "EquippedBeasts(address)": {
        "notice": "EquippedBeasts indicates the poolID of the beasts that are currently equipped by the given player.The mapping is address(player) => poolID + 1.The value stored is poolID + 1 so that 0 indicates that no item is currently equipped in the slot."
      },
      "EquippedBody(address)": {
        "notice": "EquippedBody indicates the poolID of the body that is currently equipped by the given player.The mapping is address(player) => poolID + 1.The value stored is poolID + 1 so that 0 indicates that no item is currently equipped in the slot."
      },
      "EquippedCover(address)": {
        "notice": "EquippedCover indicates the poolID of the cover that is currently equipped by the given player.The mapping is address(player) => poolID + 1.The value stored is poolID + 1 so that 0 indicates that no item is currently equipped in the slot."
      },
      "EquippedWheels(address)": {
        "notice": "EquippedWheels indicates the poolID of the wheels that are currently equipped by the given player.The mapping is address(player) => poolID + 1.The value stored is poolID + 1 so that 0 indicates that no item is currently equipped in the slot."
      },
      "ImprovedOutcomesCumulativeMass(uint256)": {
        "notice": "Cumulative mass function for the improved distribution over outcomes."
      },
      "LastRollBlock(address)": {
        "notice": "The block number of the last roll/re-roll by each player."
      },
      "UnmodifiedOutcomesCumulativeMass(uint256)": {
        "notice": "Cumulative mass function for the unmodified distribution over outcomes."
      },
      "accept()": {
        "notice": "If a player calls this method at least one block after they last rolled and before their block deadline expires, it accepts the outcome of their last roll and transfers the corresponding reward to their account."
      },
      "constructor": {
        "notice": "Creates a JackpotJunction game contract."
      },
      "genera(uint256)": {
        "notice": "Returns the itemType, terrainType, and tier of a given pool ID."
      },
      "hasBonus(address)": {
        "notice": "Returns true if the given player currently has a bonus applied to them from their equipped items and false otherwise."
      },
      "outcome(address,bool)": {
        "notice": "If `outcome` is called at least one block after the player last rolled and before the players block deadline expires, it shows the outcome of the player's last roll."
      },
      "roll()": {
        "notice": "Rolls or rerolls for the `msg.sender`, depending on whether or not whether `BlocksToAct` blocks have elapsed since their last roll. If that number of blocks has elapsed, then the player is rolling and must pay `CostToRoll`. Otherwise, the player is rerolling and must be `CostToReroll`."
      },
      "sampleImprovedOutcomesCumulativeMass(uint256)": {
        "notice": "Samples from bonus distribution over outcomes."
      },
      "sampleUnmodifiedOutcomeCumulativeMass(uint256)": {
        "notice": "Samples from unmodified distribution over outcomes."
      }
    },
    "notice": "This is the game contract for The Degen Trail: Jackpot Junction, a game in world of The Degen Trail.",
    "version": 1
  },
  "storageLayout": {
    "storage": [
      {
        "astId": 178,
        "contract": "src/JackpotJunction.sol:JackpotJunction",
        "label": "_balances",
        "offset": 0,
        "slot": "0",
        "type": "t_mapping(t_uint256,t_mapping(t_address,t_uint256))"
      },
      {
        "astId": 184,
        "contract": "src/JackpotJunction.sol:JackpotJunction",
        "label": "_operatorApprovals",
        "offset": 0,
        "slot": "1",
        "type": "t_mapping(t_address,t_mapping(t_address,t_bool))"
      },
      {
        "astId": 186,
        "contract": "src/JackpotJunction.sol:JackpotJunction",
        "label": "_uri",
        "offset": 0,
        "slot": "2",
        "type": "t_string_storage"
      },
      {
        "astId": 4425,
        "contract": "src/JackpotJunction.sol:JackpotJunction",
        "label": "_status",
        "offset": 0,
        "slot": "3",
        "type": "t_uint256"
      },
      {
        "astId": 7237,
        "contract": "src/JackpotJunction.sol:JackpotJunction",
        "label": "UnmodifiedOutcomesCumulativeMass",
        "offset": 0,
        "slot": "4",
        "type": "t_array(t_uint256)5_storage"
      },
      {
        "astId": 7268,
        "contract": "src/JackpotJunction.sol:JackpotJunction",
        "label": "ImprovedOutcomesCumulativeMass",
        "offset": 0,
        "slot": "9",
        "type": "t_array(t_uint256)5_storage"
      },
      {
        "astId": 7271,
        "contract": "src/JackpotJunction.sol:JackpotJunction",
        "label": "BlocksToAct",
        "offset": 0,
        "slot": "14",
        "type": "t_uint256"
      },
      {
        "astId": 7276,
        "contract": "src/JackpotJunction.sol:JackpotJunction",
        "label": "LastRollBlock",
        "offset": 0,
        "slot": "15",
        "type": "t_mapping(t_address,t_uint256)"
      },
      {
        "astId": 7279,
        "contract": "src/JackpotJunction.sol:JackpotJunction",
        "label": "CostToRoll",
        "offset": 0,
        "slot": "16",
        "type": "t_uint256"
      },
      {
        "astId": 7282,
        "contract": "src/JackpotJunction.sol:JackpotJunction",
        "label": "CostToReroll",
        "offset": 0,
        "slot": "17",
        "type": "t_uint256"
      },
      {
        "astId": 7289,
        "contract": "src/JackpotJunction.sol:JackpotJunction",
        "label": "CurrentTier",
        "offset": 0,
        "slot": "18",
        "type": "t_mapping(t_uint256,t_mapping(t_uint256,t_uint256))"
      },
      {
        "astId": 7294,
        "contract": "src/JackpotJunction.sol:JackpotJunction",
        "label": "EquippedCover",
        "offset": 0,
        "slot": "19",
        "type": "t_mapping(t_address,t_uint256)"
      },
      {
        "astId": 7299,
        "contract": "src/JackpotJunction.sol:JackpotJunction",
        "label": "EquippedBody",
        "offset": 0,
        "slot": "20",
        "type": "t_mapping(t_address,t_uint256)"
      },
      {
        "astId": 7304,
        "contract": "src/JackpotJunction.sol:JackpotJunction",
        "label": "EquippedWheels",
        "offset": 0,
        "slot": "21",
        "type": "t_mapping(t_address,t_uint256)"
      },
      {
        "astId": 7309,
        "contract": "src/JackpotJunction.sol:JackpotJunction",
        "label": "EquippedBeasts",
        "offset": 0,
        "slot": "22",
        "type": "t_mapping(t_address,t_uint256)"
      }
    ],
    "types": {
      "t_address": {
        "encoding": "inplace",
        "label": "address",
        "numberOfBytes": "20"
      },
      "t_array(t_uint256)5_storage": {
        "base": "t_uint256",
        "encoding": "inplace",
        "label": "uint256[5]",
        "numberOfBytes": "160"
      },
      "t_bool": {
        "encoding": "inplace",
        "label": "bool",
        "numberOfBytes": "1"
      },
      "t_mapping(t_address,t_bool)": {
        "encoding": "mapping",
        "key": "t_address",
        "label": "mapping(address => bool)",
        "numberOfBytes": "32",
        "value": "t_bool"
      },
      "t_mapping(t_address,t_mapping(t_address,t_bool))": {
        "encoding": "mapping",
        "key": "t_address",
        "label": "mapping(address => mapping(address => bool))",
        "numberOfBytes": "32",
        "value": "t_mapping(t_address,t_bool)"
      },
      "t_mapping(t_address,t_uint256)": {
        "encoding": "mapping",
        "key": "t_address",
        "label": "mapping(address => uint256)",
        "numberOfBytes": "32",
        "value": "t_uint256"
      },
      "t_mapping(t_uint256,t_mapping(t_address,t_uint256))": {
        "encoding": "mapping",
        "key": "t_uint256",
        "label": "mapping(uint256 => mapping(address => uint256))",
        "numberOfBytes": "32",
        "value": "t_mapping(t_address,t_uint256)"
      },
      "t_mapping(t_uint256,t_mapping(t_uint256,t_uint256))": {
        "encoding": "mapping",
        "key": "t_uint256",
        "label": "mapping(uint256 => mapping(uint256 => uint256))",
        "numberOfBytes": "32",
        "value": "t_mapping(t_uint256,t_uint256)"
      },
      "t_mapping(t_uint256,t_uint256)": {
        "encoding": "mapping",
        "key": "t_uint256",
        "label": "mapping(uint256 => uint256)",
        "numberOfBytes": "32",
        "value": "t_uint256"
      },
      "t_string_storage": {
        "encoding": "bytes",
        "label": "string",
        "numberOfBytes": "32"
      },
      "t_uint256": {
        "encoding": "inplace",
        "label": "uint256",
        "numberOfBytes": "32"
      }
    }
  }
}