{
  "address": "0x6Ae55CA4190589EC32335eA6077F286fee15A8CA",
  "abi": [
    {
      "inputs": [
        {
          "internalType": "uint256",
          "name": "blocksToAct",
          "type": "uint256"
        },
        {
          "internalType": "uint256",
          "name": "costToRoll",
          "type": "uint256"
        },
        {
          "internalType": "uint256",
          "name": "costToReroll",
          "type": "uint256"
        }
      ],
      "stateMutability": "nonpayable",
      "type": "constructor"
    },
    {
      "inputs": [],
      "name": "DeadlineExceeded",
      "type": "error"
    },
    {
      "inputs": [
        {
          "internalType": "address",
          "name": "sender",
          "type": "address"
        },
        {
          "internalType": "uint256",
          "name": "balance",
          "type": "uint256"
        },
        {
          "internalType": "uint256",
          "name": "needed",
          "type": "uint256"
        },
        {
          "internalType": "uint256",
          "name": "tokenId",
          "type": "uint256"
        }
      ],
      "name": "ERC1155InsufficientBalance",
      "type": "error"
    },
    {
      "inputs": [
        {
          "internalType": "address",
          "name": "approver",
          "type": "address"
        }
      ],
      "name": "ERC1155InvalidApprover",
      "type": "error"
    },
    {
      "inputs": [
        {
          "internalType": "uint256",
          "name": "idsLength",
          "type": "uint256"
        },
        {
          "internalType": "uint256",
          "name": "valuesLength",
          "type": "uint256"
        }
      ],
      "name": "ERC1155InvalidArrayLength",
      "type": "error"
    },
    {
      "inputs": [
        {
          "internalType": "address",
          "name": "operator",
          "type": "address"
        }
      ],
      "name": "ERC1155InvalidOperator",
      "type": "error"
    },
    {
      "inputs": [
        {
          "internalType": "address",
          "name": "receiver",
          "type": "address"
        }
      ],
      "name": "ERC1155InvalidReceiver",
      "type": "error"
    },
    {
      "inputs": [
        {
          "internalType": "address",
          "name": "sender",
          "type": "address"
        }
      ],
      "name": "ERC1155InvalidSender",
      "type": "error"
    },
    {
      "inputs": [
        {
          "internalType": "address",
          "name": "operator",
          "type": "address"
        },
        {
          "internalType": "address",
          "name": "owner",
          "type": "address"
        }
      ],
      "name": "ERC1155MissingApprovalForAll",
      "type": "error"
    },
    {
      "inputs": [
        {
          "internalType": "uint256",
          "name": "poolID",
          "type": "uint256"
        }
      ],
      "name": "InsufficientItems",
      "type": "error"
    },
    {
      "inputs": [],
      "name": "InsufficientValue",
      "type": "error"
    },
    {
      "inputs": [
        {
          "internalType": "uint256",
          "name": "poolID",
          "type": "uint256"
        }
      ],
      "name": "InvalidItem",
      "type": "error"
    },
    {
      "inputs": [],
      "name": "ReentrancyGuardReentrantCall",
      "type": "error"
    },
    {
      "inputs": [],
      "name": "RollInProgress",
      "type": "error"
    },
    {
      "inputs": [],
      "name": "WaitForTick",
      "type": "error"
    },
    {
      "anonymous": false,
      "inputs": [
        {
          "indexed": true,
          "internalType": "address",
          "name": "account",
          "type": "address"
        },
        {
          "indexed": true,
          "internalType": "address",
          "name": "operator",
          "type": "address"
        },
        {
          "indexed": false,
          "internalType": "bool",
          "name": "approved",
          "type": "bool"
        }
      ],
      "name": "ApprovalForAll",
      "type": "event"
    },
    {
      "anonymous": false,
      "inputs": [
        {
          "indexed": true,
          "internalType": "address",
          "name": "player",
          "type": "address"
        },
        {
          "indexed": true,
          "internalType": "uint256",
          "name": "outcome",
          "type": "uint256"
        },
        {
          "indexed": false,
          "internalType": "uint256",
          "name": "value",
          "type": "uint256"
        }
      ],
      "name": "Award",
      "type": "event"
    },
    {
      "anonymous": false,
      "inputs": [
        {
          "indexed": true,
          "internalType": "address",
          "name": "player",
          "type": "address"
        }
      ],
      "name": "Roll",
      "type": "event"
    },
    {
      "anonymous": false,
      "inputs": [
        {
          "indexed": true,
          "internalType": "uint256",
          "name": "itemType",
          "type": "uint256"
        },
        {
          "indexed": true,
          "internalType": "uint256",
          "name": "terrainType",
          "type": "uint256"
        },
        {
          "indexed": true,
          "internalType": "uint256",
          "name": "tier",
          "type": "uint256"
        },
        {
          "indexed": false,
          "internalType": "uint256",
          "name": "poolID",
          "type": "uint256"
        }
      ],
      "name": "TierUnlocked",
      "type": "event"
    },
    {
      "anonymous": false,
      "inputs": [
        {
          "indexed": true,
          "internalType": "address",
          "name": "operator",
          "type": "address"
        },
        {
          "indexed": true,
          "internalType": "address",
          "name": "from",
          "type": "address"
        },
        {
          "indexed": true,
          "internalType": "address",
          "name": "to",
          "type": "address"
        },
        {
          "indexed": false,
          "internalType": "uint256[]",
          "name": "ids",
          "type": "uint256[]"
        },
        {
          "indexed": false,
          "internalType": "uint256[]",
          "name": "values",
          "type": "uint256[]"
        }
      ],
      "name": "TransferBatch",
      "type": "event"
    },
    {
      "anonymous": false,
      "inputs": [
        {
          "indexed": true,
          "internalType": "address",
          "name": "operator",
          "type": "address"
        },
        {
          "indexed": true,
          "internalType": "address",
          "name": "from",
          "type": "address"
        },
        {
          "indexed": true,
          "internalType": "address",
          "name": "to",
          "type": "address"
        },
        {
          "indexed": false,
          "internalType": "uint256",
          "name": "id",
          "type": "uint256"
        },
        {
          "indexed": false,
          "internalType": "uint256",
          "name": "value",
          "type": "uint256"
        }
      ],
      "name": "TransferSingle",
      "type": "event"
    },
    {
      "anonymous": false,
      "inputs": [
        {
          "indexed": false,
          "internalType": "string",
          "name": "value",
          "type": "string"
        },
        {
          "indexed": true,
          "internalType": "uint256",
          "name": "id",
          "type": "uint256"
        }
      ],
      "name": "URI",
      "type": "event"
    },
    {
      "inputs": [],
      "name": "BlocksToAct",
      "outputs": [
        {
          "internalType": "uint256",
          "name": "",
          "type": "uint256"
        }
      ],
      "stateMutability": "view",
      "type": "function"
    },
    {
      "inputs": [],
      "name": "CostToReroll",
      "outputs": [
        {
          "internalType": "uint256",
          "name": "",
          "type": "uint256"
        }
      ],
      "stateMutability": "view",
      "type": "function"
    },
    {
      "inputs": [],
      "name": "CostToRoll",
      "outputs": [
        {
          "internalType": "uint256",
          "name": "",
          "type": "uint256"
        }
      ],
      "stateMutability": "view",
      "type": "function"
    },
    {
      "inputs": [
        {
          "internalType": "uint256",
          "name": "",
          "type": "uint256"
        },
        {
          "internalType": "uint256",
          "name": "",
          "type": "uint256"
        }
      ],
      "name": "CurrentTier",
      "outputs": [
        {
          "internalType": "uint256",
          "name": "",
          "type": "uint256"
        }
      ],
      "stateMutability": "view",
      "type": "function"
    },
    {
      "inputs": [
        {
          "internalType": "address",
          "name": "",
          "type": "address"
        }
      ],
      "name": "EquippedBeasts",
      "outputs": [
        {
          "internalType": "uint256",
          "name": "",
          "type": "uint256"
        }
      ],
      "stateMutability": "view",
      "type": "function"
    },
    {
      "inputs": [
        {
          "internalType": "address",
          "name": "",
          "type": "address"
        }
      ],
      "name": "EquippedBody",
      "outputs": [
        {
          "internalType": "uint256",
          "name": "",
          "type": "uint256"
        }
      ],
      "stateMutability": "view",
      "type": "function"
    },
    {
      "inputs": [
        {
          "internalType": "address",
          "name": "",
          "type": "address"
        }
      ],
      "name": "EquippedCover",
      "outputs": [
        {
          "internalType": "uint256",
          "name": "",
          "type": "uint256"
        }
      ],
      "stateMutability": "view",
      "type": "function"
    },
    {
      "inputs": [
        {
          "internalType": "address",
          "name": "",
          "type": "address"
        }
      ],
      "name": "EquippedWheels",
      "outputs": [
        {
          "internalType": "uint256",
          "name": "",
          "type": "uint256"
        }
      ],
      "stateMutability": "view",
      "type": "function"
    },
    {
      "inputs": [
        {
          "internalType": "uint256",
          "name": "",
          "type": "uint256"
        }
      ],
      "name": "ImprovedOutcomesCumulativeMass",
      "outputs": [
        {
          "internalType": "uint256",
          "name": "",
          "type": "uint256"
        }
      ],
      "stateMutability": "view",
      "type": "function"
    },
    {
      "inputs": [
        {
          "internalType": "address",
          "name": "",
          "type": "address"
        }
      ],
      "name": "LastRollBlock",
      "outputs": [
        {
          "internalType": "uint256",
          "name": "",
          "type": "uint256"
        }
      ],
      "stateMutability": "view",
      "type": "function"
    },
    {
      "inputs": [
        {
          "internalType": "uint256",
          "name": "",
          "type": "uint256"
        }
      ],
      "name": "UnmodifiedOutcomesCumulativeMass",
      "outputs": [
        {
          "internalType": "uint256",
          "name": "",
          "type": "uint256"
        }
      ],
      "stateMutability": "view",
      "type": "function"
    },
    {
      "inputs": [],
      "name": "accept",
      "outputs": [
        {
          "internalType": "uint256",
          "name": "",
          "type": "uint256"
        },
        {
          "internalType": "uint256",
          "name": "",
          "type": "uint256"
        },
        {
          "internalType": "uint256",
          "name": "",
          "type": "uint256"
        }
      ],
      "stateMutability": "nonpayable",
      "type": "function"
    },
    {
      "inputs": [
        {
          "internalType": "address",
          "name": "account",
          "type": "address"
        },
        {
          "internalType": "uint256",
          "name": "id",
          "type": "uint256"
        }
      ],
      "name": "balanceOf",
      "outputs": [
        {
          "internalType": "uint256",
          "name": "",
          "type": "uint256"
        }
      ],
      "stateMutability": "view",
      "type": "function"
    },
    {
      "inputs": [
        {
          "internalType": "address[]",
          "name": "accounts",
          "type": "address[]"
        },
        {
          "internalType": "uint256[]",
          "name": "ids",
          "type": "uint256[]"
        }
      ],
      "name": "balanceOfBatch",
      "outputs": [
        {
          "internalType": "uint256[]",
          "name": "",
          "type": "uint256[]"
        }
      ],
      "stateMutability": "view",
      "type": "function"
    },
    {
      "inputs": [
        {
          "internalType": "uint256",
          "name": "poolID",
          "type": "uint256"
        },
        {
          "internalType": "uint256",
          "name": "amount",
          "type": "uint256"
        }
      ],
      "name": "burn",
      "outputs": [],
      "stateMutability": "nonpayable",
      "type": "function"
    },
    {
      "inputs": [
        {
          "internalType": "uint256[]",
          "name": "poolIDs",
          "type": "uint256[]"
        },
        {
          "internalType": "uint256[]",
          "name": "amounts",
          "type": "uint256[]"
        }
      ],
      "name": "burnBatch",
      "outputs": [],
      "stateMutability": "nonpayable",
      "type": "function"
    },
    {
      "inputs": [
        {
          "internalType": "uint256",
          "name": "poolID",
          "type": "uint256"
        },
        {
          "internalType": "uint256",
          "name": "numOutputs",
          "type": "uint256"
        }
      ],
      "name": "craft",
      "outputs": [
        {
          "internalType": "uint256",
          "name": "newPoolID",
          "type": "uint256"
        }
      ],
      "stateMutability": "nonpayable",
      "type": "function"
    },
    {
      "inputs": [],
      "name": "currentRewards",
      "outputs": [
        {
          "internalType": "uint256",
          "name": "small",
          "type": "uint256"
        },
        {
          "internalType": "uint256",
          "name": "medium",
          "type": "uint256"
        },
        {
          "internalType": "uint256",
          "name": "large",
          "type": "uint256"
        }
      ],
      "stateMutability": "view",
      "type": "function"
    },
    {
      "inputs": [
        {
          "internalType": "uint256[]",
          "name": "poolIDs",
          "type": "uint256[]"
        }
      ],
      "name": "equip",
      "outputs": [],
      "stateMutability": "nonpayable",
      "type": "function"
    },
    {
      "inputs": [
        {
          "internalType": "uint256",
          "name": "poolID",
          "type": "uint256"
        }
      ],
      "name": "genera",
      "outputs": [
        {
          "internalType": "uint256",
          "name": "itemType",
          "type": "uint256"
        },
        {
          "internalType": "uint256",
          "name": "terrainType",
          "type": "uint256"
        },
        {
          "internalType": "uint256",
          "name": "tier",
          "type": "uint256"
        }
      ],
      "stateMutability": "pure",
      "type": "function"
    },
    {
      "inputs": [
        {
          "internalType": "address",
          "name": "degenerate",
          "type": "address"
        }
      ],
      "name": "hasBonus",
      "outputs": [
        {
          "internalType": "bool",
          "name": "bonus",
          "type": "bool"
        }
      ],
      "stateMutability": "view",
      "type": "function"
    },
    {
      "inputs": [
        {
          "internalType": "address",
          "name": "account",
          "type": "address"
        },
        {
          "internalType": "address",
          "name": "operator",
          "type": "address"
        }
      ],
      "name": "isApprovedForAll",
      "outputs": [
        {
          "internalType": "bool",
          "name": "",
          "type": "bool"
        }
      ],
      "stateMutability": "view",
      "type": "function"
    },
    {
      "inputs": [
        {
          "internalType": "address",
          "name": "",
          "type": "address"
        },
        {
          "internalType": "address",
          "name": "",
          "type": "address"
        },
        {
          "internalType": "uint256[]",
          "name": "",
          "type": "uint256[]"
        },
        {
          "internalType": "uint256[]",
          "name": "",
          "type": "uint256[]"
        },
        {
          "internalType": "bytes",
          "name": "",
          "type": "bytes"
        }
      ],
      "name": "onERC1155BatchReceived",
      "outputs": [
        {
          "internalType": "bytes4",
          "name": "",
          "type": "bytes4"
        }
      ],
      "stateMutability": "nonpayable",
      "type": "function"
    },
    {
      "inputs": [
        {
          "internalType": "address",
          "name": "",
          "type": "address"
        },
        {
          "internalType": "address",
          "name": "",
          "type": "address"
        },
        {
          "internalType": "uint256",
          "name": "",
          "type": "uint256"
        },
        {
          "internalType": "uint256",
          "name": "",
          "type": "uint256"
        },
        {
          "internalType": "bytes",
          "name": "",
          "type": "bytes"
        }
      ],
      "name": "onERC1155Received",
      "outputs": [
        {
          "internalType": "bytes4",
          "name": "",
          "type": "bytes4"
        }
      ],
      "stateMutability": "nonpayable",
      "type": "function"
    },
    {
      "inputs": [
        {
          "internalType": "address",
          "name": "degenerate",
          "type": "address"
        },
        {
          "internalType": "bool",
          "name": "bonus",
          "type": "bool"
        }
      ],
      "name": "outcome",
      "outputs": [
        {
          "internalType": "uint256",
          "name": "",
          "type": "uint256"
        },
        {
          "internalType": "uint256",
          "name": "",
          "type": "uint256"
        },
        {
          "internalType": "uint256",
          "name": "",
          "type": "uint256"
        }
      ],
      "stateMutability": "view",
      "type": "function"
    },
    {
      "inputs": [
        {
          "internalType": "uint256",
          "name": "poolID",
          "type": "uint256"
        }
      ],
      "name": "poolMetadata",
      "outputs": [
        {
          "internalType": "bytes",
          "name": "json",
          "type": "bytes"
        }
      ],
      "stateMutability": "pure",
      "type": "function"
    },
    {
      "inputs": [],
      "name": "roll",
      "outputs": [],
      "stateMutability": "payable",
      "type": "function"
    },
    {
      "inputs": [
        {
          "internalType": "address",
          "name": "from",
          "type": "address"
        },
        {
          "internalType": "address",
          "name": "to",
          "type": "address"
        },
        {
          "internalType": "uint256[]",
          "name": "ids",
          "type": "uint256[]"
        },
        {
          "internalType": "uint256[]",
          "name": "values",
          "type": "uint256[]"
        },
        {
          "internalType": "bytes",
          "name": "data",
          "type": "bytes"
        }
      ],
      "name": "safeBatchTransferFrom",
      "outputs": [],
      "stateMutability": "nonpayable",
      "type": "function"
    },
    {
      "inputs": [
        {
          "internalType": "address",
          "name": "from",
          "type": "address"
        },
        {
          "internalType": "address",
          "name": "to",
          "type": "address"
        },
        {
          "internalType": "uint256",
          "name": "id",
          "type": "uint256"
        },
        {
          "internalType": "uint256",
          "name": "value",
          "type": "uint256"
        },
        {
          "internalType": "bytes",
          "name": "data",
          "type": "bytes"
        }
      ],
      "name": "safeTransferFrom",
      "outputs": [],
      "stateMutability": "nonpayable",
      "type": "function"
    },
    {
      "inputs": [
        {
          "internalType": "uint256",
          "name": "entropy",
          "type": "uint256"
        }
      ],
      "name": "sampleImprovedOutcomesCumulativeMass",
      "outputs": [
        {
          "internalType": "uint256",
          "name": "",
          "type": "uint256"
        }
      ],
      "stateMutability": "view",
      "type": "function"
    },
    {
      "inputs": [
        {
          "internalType": "uint256",
          "name": "entropy",
          "type": "uint256"
        }
      ],
      "name": "sampleUnmodifiedOutcomeCumulativeMass",
      "outputs": [
        {
          "internalType": "uint256",
          "name": "",
          "type": "uint256"
        }
      ],
      "stateMutability": "view",
      "type": "function"
    },
    {
      "inputs": [
        {
          "internalType": "address",
          "name": "operator",
          "type": "address"
        },
        {
          "internalType": "bool",
          "name": "approved",
          "type": "bool"
        }
      ],
      "name": "setApprovalForAll",
      "outputs": [],
      "stateMutability": "nonpayable",
      "type": "function"
    },
    {
      "inputs": [
        {
          "internalType": "bytes4",
          "name": "interfaceID",
          "type": "bytes4"
        }
      ],
      "name": "supportsInterface",
      "outputs": [
        {
          "internalType": "bool",
          "name": "",
          "type": "bool"
        }
      ],
      "stateMutability": "pure",
      "type": "function"
    },
    {
      "inputs": [],
      "name": "unequip",
      "outputs": [],
      "stateMutability": "nonpayable",
      "type": "function"
    },
    {
      "inputs": [
        {
          "internalType": "uint256",
          "name": "poolID",
          "type": "uint256"
        }
      ],
      "name": "uri",
      "outputs": [
        {
          "internalType": "string",
          "name": "",
          "type": "string"
        }
      ],
      "stateMutability": "pure",
      "type": "function"
    },
    {
      "stateMutability": "payable",
      "type": "receive"
    }
  ],
  "transactionHash": "0xb4d9d60a8ebe7807962feefedf70f9f5c2e5c656ddac873a12b2ca2e67f169f6",
  "args": [
    40,
    100,
    25
  ],
  "numDeployments": 5,
  "solcInputHash": "a0c016662fcdf59fd732d43b7411e0bb",
  "bytecode": "0x610120604052620800006080908152620e3d6660a052620fd6ff60c052620ffff660e05262100000610100526200003b9060049060056200019e565b506040805160a081018252620729238152620d66896020820152620fc37291810191909152620ffff16060820152621000006080820152620000829060099060056200019e565b503480156200009057600080fd5b50604051620031d8380380620031d8833981016040819052620000b391620001ff565b6040518060600160405280602c8152602001620031ac602c9139620000d8816200018c565b506001600355600e8390556010829055601181905560005b6004811015620001825760005b60078110156200016c57600081837f4b4325b9305cc4ce94c0e31c581c16ade0808971cfac8470d7a9c67ddbc9f629816200013a84600462000244565b62000146919062000264565b60405190815260200160405180910390a48062000163816200027a565b915050620000fd565b508062000179816200027a565b915050620000f0565b5050505062000407565b60026200019a82826200033b565b5050565b8260058101928215620001d6579160200282015b82811115620001d6578251829062ffffff16905591602001919060010190620001b2565b50620001e4929150620001e8565b5090565b5b80821115620001e45760008155600101620001e9565b6000806000606084860312156200021557600080fd5b8351925060208401519150604084015190509250925092565b634e487b7160e01b600052601160045260246000fd5b80820281158282048414176200025e576200025e6200022e565b92915050565b808201808211156200025e576200025e6200022e565b6000600182016200028f576200028f6200022e565b5060010190565b634e487b7160e01b600052604160045260246000fd5b600181811c90821680620002c157607f821691505b602082108103620002e257634e487b7160e01b600052602260045260246000fd5b50919050565b601f8211156200033657600081815260208120601f850160051c81016020861015620003115750805b601f850160051c820191505b8181101562000332578281556001016200031d565b5050505b505050565b81516001600160401b0381111562000357576200035762000296565b6200036f81620003688454620002ac565b84620002e8565b602080601f831160018114620003a757600084156200038e5750858301515b600019600386901b1c1916600185901b17855562000332565b600085815260208120601f198616915b82811015620003d857888601518255948401946001909101908401620003b7565b5085821015620003f75787850151600019600388901b60f8161c191681555b5050505050600190811b01905550565b612d9580620004176000396000f3fe6080604052600436106102075760003560e01c80638534fb4611610118578063be59cce3116100a0578063e32d56901161006f578063e32d569014610647578063e985e9c514610674578063ecefbad814610694578063f23a6e61146106b4578063f242432a146106e057600080fd5b8063be59cce3146105c4578063cd5e3c5d146105da578063cdf2f0ec146105e2578063dd88fa7f1461060f57600080fd5b8063b390c0ab116100e7578063b390c0ab14610514578063b870fe8014610534578063b8f905c81461054a578063b9c2edf71461056a578063bc197c811461057f57600080fd5b80638534fb4614610492578063901a7d53146104b25780639a0facc2146104c7578063a22cb465146104f457600080fd5b80632eb2c2d61161019b57806344dcd1431161016a57806344dcd143146103e25780634e1273f41461040f57806350b8aa921461043c5780636c08995d1461045257806383ca4b6f1461047257600080fd5b80632eb2c2d6146103625780633a134f78146103825780633a259e6a146103a2578063418145cf146103c257600080fd5b80630e89341c116101d75780630e89341c146102c557806318ce0a4b146102f25780632852b71c14610312578063289137a11461034257600080fd5b8062fdd58e14610213578063010c9b6e1461024657806301ffc9a71461027357806303f2f420146102a357600080fd5b3661020e57005b600080fd5b34801561021f57600080fd5b5061023361022e36600461231d565b610700565b6040519081526020015b60405180910390f35b34801561025257600080fd5b50610233610261366004612347565b60146020526000908152604090205481565b34801561027f57600080fd5b5061029361028e36600461237f565b610728565b604051901515815260200161023d565b3480156102af57600080fd5b506102c36102be36600461239c565b610791565b005b3480156102d157600080fd5b506102e56102e0366004612411565b610afa565b60405161023d919061247a565b3480156102fe57600080fd5b5061023361030d366004612411565b610b33565b34801561031e57600080fd5b50610327610b4a565b6040805193845260208401929092529082015260600161023d565b34801561034e57600080fd5b5061023361035d36600461248d565b610ba4565b34801561036e57600080fd5b506102c361037d3660046125f5565b610cba565b34801561038e57600080fd5b5061032761039d366004612411565b610d21565b3480156103ae57600080fd5b506103276103bd36600461269f565b610d5e565b3480156103ce57600080fd5b506102336103dd366004612411565b610ec9565b3480156103ee57600080fd5b506102336103fd366004612347565b60166020526000908152604090205481565b34801561041b57600080fd5b5061042f61042a3660046126db565b610ed9565b60405161023d91906127d6565b34801561044857600080fd5b5061023360105481565b34801561045e57600080fd5b5061023361046d366004612411565b610fae565b34801561047e57600080fd5b506102c361048d3660046127e9565b611011565b34801561049e57600080fd5b506102e56104ad366004612411565b61101c565b3480156104be57600080fd5b506103276112a2565b3480156104d357600080fd5b506102336104e2366004612347565b600f6020526000908152604090205481565b34801561050057600080fd5b506102c361050f36600461269f565b6112df565b34801561052057600080fd5b506102c361052f36600461248d565b6112ea565b34801561054057600080fd5b5061023360115481565b34801561055657600080fd5b50610293610565366004612347565b6112f5565b34801561057657600080fd5b506102c36114b2565b34801561058b57600080fd5b506105ab61059a3660046125f5565b63bc197c8160e01b95945050505050565b6040516001600160e01b0319909116815260200161023d565b3480156105d057600080fd5b50610233600e5481565b6102c3611654565b3480156105ee57600080fd5b506102336105fd366004612347565b60156020526000908152604090205481565b34801561061b57600080fd5b5061023361062a36600461248d565b601260209081526000928352604080842090915290825290205481565b34801561065357600080fd5b50610233610662366004612347565b60136020526000908152604090205481565b34801561068057600080fd5b5061029361068f366004612836565b6116db565b3480156106a057600080fd5b506102336106af366004612411565b611709565b3480156106c057600080fd5b506105ab6106cf366004612869565b63f23a6e6160e01b95945050505050565b3480156106ec57600080fd5b506102c36106fb366004612869565b611755565b6000818152602081815260408083206001600160a01b03861684529091529020545b92915050565b60006301ffc9a760e01b6001600160e01b0319831614806107595750636cdb3d1360e11b6001600160e01b03198316145b806107745750630271189760e51b6001600160e01b03198316145b806107225750506001600160e01b03191663188d442960e31b1490565b6107996117b4565b6107a2336117de565b60005b81811015610aeb5760006107d08484848181106107c4576107c46128ce565b90506020020135610d21565b505090508060000361089c57336000908152601360205260408120541561082c573360009081526013602052604090205461080d906001906128fa565b905061082c303383600160405180602001604052806000815250611826565b6108613330878787818110610843576108436128ce565b90506020020135600160405180602001604052806000815250611826565b848484818110610873576108736128ce565b905060200201356001610886919061290d565b3360009081526013602052604090205550610ad8565b806001036109465733600090815260146020526040812054156108f457336000908152601460205260409020546108d5906001906128fa565b90506108f4303383600160405180602001604052806000815250611826565b61090b3330878787818110610843576108436128ce565b84848481811061091d5761091d6128ce565b905060200201356001610930919061290d565b3360009081526014602052604090205550610ad8565b806002036109f057336000908152601560205260408120541561099e573360009081526015602052604090205461097f906001906128fa565b905061099e303383600160405180602001604052806000815250611826565b6109b53330878787818110610843576108436128ce565b8484848181106109c7576109c76128ce565b9050602002013560016109da919061290d565b3360009081526015602052604090205550610ad8565b80600303610a9a573360009081526016602052604081205415610a485733600090815260166020526040902054610a29906001906128fa565b9050610a48303383600160405180602001604052806000815250611826565b610a5f3330878787818110610843576108436128ce565b848484818110610a7157610a716128ce565b905060200201356001610a84919061290d565b3360009081526016602052604090205550610ad8565b838383818110610aac57610aac6128ce565b90506020020135604051633d39bacf60e11b8152600401610acf91815260200190565b60405180910390fd5b5080610ae381612920565b9150506107a5565b50610af66001600355565b5050565b6060610b0d610b088361101c565b6118b4565b604051602001610b1d9190612955565b6040516020818303038152906040529050919050565b60098160058110610b4357600080fd5b0154905081565b6000806000610b576117b4565b6000806000610b69336103bd336112f5565b925092509250610b798282611a14565b610b8e336000908152600f6020526040812055565b91945092509050610b9f6001600355565b909192565b6000610bae6117b4565b610bb982600261299a565b610bc33385610700565b1015610be557604051633bf0eca360e21b815260048101849052602401610acf565b610bf083601c61290d565b9050610c073384610c0285600261299a565b611ac6565b610c2233828460405180602001604052806000815250611b35565b6000806000610c3084610d21565b60008381526012602090815260408083208584529091529020549295509093509150811115610cad57600083815260126020908152604080832085845282529182902083905590518581528291849186917f4b4325b9305cc4ce94c0e31c581c16ade0808971cfac8470d7a9c67ddbc9f629910160405180910390a45b5050506107226001600355565b336001600160a01b0386168114801590610cdb5750610cd986826116db565b155b15610d0c5760405163711bec9160e11b81526001600160a01b03808316600483015287166024820152604401610acf565b610d198686868686611b92565b505050505050565b60008080610d30601c856129c7565b90506004610d3f601c866129db565b610d4991906129c7565b9150610d566004856129db565b949193509150565b6001600160a01b0382166000908152600f6020526040812054819081904311610d9a5760405163bfc2936d60e01b815260040160405180910390fd5b610da385611bf2565b6001600160a01b0385166000818152600f6020908152604080832054815190408184015280820194909452805180850382018152606090940190528251920191909120908515610dfd57610df682611709565b9050610e09565b610e0682610fae565b90505b600081600103610e69576000610e3560076e3fffffffffffffffffffffffffffff601487901c166129db565b90506000610e486004608a87901c6129db565b905080610e5683600461299a565b610e60919061290d565b92505050610ebb565b81600203610e9b57601054610e8390600181901c9061290d565b90504760061c811115610e9657504760061c5b610ebb565b81600303610ead57504760061c610ebb565b81600403610ebb57504760011c5b919450925090509250925092565b60048160058110610b4357600080fd5b60608151835114610f0a5781518351604051635b05999160e01b815260048101929092526024820152604401610acf565b6000835167ffffffffffffffff811115610f2657610f266124af565b604051908082528060200260200182016040528015610f4f578160200160208202803683370190505b50905060005b8451811015610fa657602080820286010151610f7990602080840287010151610700565b828281518110610f8b57610f8b6128ce565b6020908102919091010152610f9f81612920565b9050610f55565b509392505050565b6000620fffff82166004820154811015610fcb5750600092915050565b600554811015610fde5750600192915050565b600654811015610ff15750600292915050565b600460035b01548110156110085750600392915050565b50600492915050565b610af6338383611c38565b6060600080600061102c85610d21565b925092509250600061103d82611c83565b60405160200161104d91906129ef565b60405160208183030381529060405290506060808460000361108f5760405180604001604052806006815260200165706c61696e7360d01b815250915061119c565b846001036110bd5760405180604001604052806006815260200165199bdc995cdd60d21b815250915061119c565b846002036110ea576040518060400160405280600581526020016407377616d760dc1b815250915061119c565b8460030361111757604051806040016040528060058152602001643bb0ba32b960d91b815250915061119c565b84600403611147576040518060400160405280600881526020016736b7bab73a30b4b760c11b815250915061119c565b84600503611175576040518060400160405280600681526020016519195cd95c9d60d21b815250915061119c565b8460060361119c576040518060400160405280600381526020016269636560e81b81525091505b856000036111c6575060408051808201909152600581526431b7bb32b960d91b6020820152611241565b856001036111ef5750604080518082019091526004815263626f647960e01b6020820152611241565b8560020361121a5750604080518082019091526006815265776865656c7360d01b6020820152611241565b85600303611241575060408051808201909152600681526562656173747360d01b60208201525b82828260405160200161125693929190612a1c565b60405160208183030381529060405292508261127185611c83565b83836040516020016112869493929190612a76565b6040516020818303038152906040529650505050505050919050565b60008060006001601054901c6010546112bb919061290d565b92504760061c8311156112cf574760061c92505b5090914760061c91504760011c90565b610af6338383611d16565b610af6338383611ac6565b6001600160a01b03811660009081526013602090815260408083205460148352818420546015845282852054601690945291842054909290831580159061133b57508215155b801561134657508115155b801561135157508015155b156114a9578361136081612c26565b945050828061136e90612c26565b935050818061137c90612c26565b925050808061138a90612c26565b91505060008060008061139c88610d21565b6000838152601260209081526040808320858452909152902054929550935091508290036113c957600198505b8093508815611414576113db87610d21565b6000838152601260209081526040808320858452909152902054929550935091508214158061140a5750838114155b1561141457600098505b881561145c5761142386610d21565b600083815260126020908152604080832085845290915290205492955093509150821415806114525750838114155b1561145c57600098505b88156114a45761146b85610d21565b6000838152601260209081526040808320858452909152902054929550935091508214158061149a5750838114155b156114a457600098505b505050505b50505050919050565b6114ba6117b4565b6114c3336117de565b336000908152601360205260408120541561152457336000908152601360205260409020546114f4906001906128fa565b9050611513303383600160405180602001604052806000815250611826565b336000908152601360205260408120555b33600090815260146020526040902054156115855733600090815260146020526040902054611555906001906128fa565b9050611574303383600160405180602001604052806000815250611826565b336000908152601460205260408120555b33600090815260156020526040902054156115e657336000908152601560205260409020546115b6906001906128fa565b90506115d5303383600160405180602001604052806000815250611826565b336000908152601560205260408120555b33600090815260166020526040902054156116475733600090815260166020526040902054611617906001906128fa565b9050611636303383600160405180602001604052806000815250611826565b336000908152601660205260408120555b506116526001600355565b565b601054600e54336000908152600f6020526040902054611674919061290d565b431161167f57506011545b803410156116a05760405163044044a560e21b815260040160405180910390fd5b336000818152600f6020526040808220439055517f663b85167cccb9640fb0a935c4853ea50b0f3dd07d2590ca19942153136cef569190a250565b6001600160a01b03918216600090815260016020908152604080832093909416825291909152205460ff1690565b6000620fffff821660098201548110156117265750600092915050565b600a548110156117395750600192915050565b600b5481101561174c5750600292915050565b60096003610ff6565b336001600160a01b0386168114801590611776575061177486826116db565b155b156117a75760405163711bec9160e11b81526001600160a01b03808316600483015287166024820152604401610acf565b610d198686868686611826565b6002600354036117d757604051633ee5aeb560e01b815260040160405180910390fd5b6002600355565b600e546001600160a01b0382166000908152600f6020526040902054611804919061290d565b43116118235760405163411931ff60e01b815260040160405180910390fd5b50565b6001600160a01b03841661185057604051632bfa23e760e11b815260006004820152602401610acf565b6001600160a01b03851661187957604051626a0d4560e21b815260006004820152602401610acf565b604080516001808252602082018690528183019081526060820185905260808201909252906118ab8787848487611dac565b50505050505050565b606081516000036118d357505060408051602081019091526000815290565b6000604051806060016040528060408152602001612d206040913990506000600384516002611902919061290d565b61190c91906129c7565b61191790600461299a565b67ffffffffffffffff81111561192f5761192f6124af565b6040519080825280601f01601f191660200182016040528015611959576020820181803683370190505b50905060018201602082018586518701602081018051600082525b828410156119cf576003840193508351603f8160121c168701518653600186019550603f81600c1c168701518653600186019550603f8160061c168701518653600186019550603f8116870151865350600185019450611974565b90525050855160039006600181146119ee5760028114611a0157611a09565b603d6001830353603d6002830353611a09565b603d60018303535b509195945050505050565b81600103611a3d57611a383382600160405180602001604052806000815250611b35565b611a8b565b8160021480611a4c5750816003145b80611a575750816004145b15611a8b57604051339082156108fc029083906000818181858888f19350505050158015611a89573d6000803e3d6000fd5b505b604051818152829033907f1187560d7b166b3122e71aedb88f19cf2f33b2d141b513fde3ca2562d19d1bcb9060200160405180910390a35050565b6001600160a01b038316611aef57604051626a0d4560e21b815260006004820152602401610acf565b604080516001808252602082018590528183019081526060820184905260a08201909252600060808201818152919291611b2e91879185908590611dac565b5050505050565b6001600160a01b038416611b5f57604051632bfa23e760e11b815260006004820152602401610acf565b60408051600180825260208201869052818301908152606082018590526080820190925290610d19600087848487611dac565b6001600160a01b038416611bbc57604051632bfa23e760e11b815260006004820152602401610acf565b6001600160a01b038516611be557604051626a0d4560e21b815260006004820152602401610acf565b611b2e8585858585611dac565b600e546001600160a01b0382166000908152600f6020526040902054611c18919061290d565b4311156118235760405163559895a360e01b815260040160405180910390fd5b6001600160a01b038316611c6157604051626a0d4560e21b815260006004820152602401610acf565b611c7e836000848460405180602001604052806000815250611dac565b505050565b60606000611c9083611dff565b600101905060008167ffffffffffffffff811115611cb057611cb06124af565b6040519080825280601f01601f191660200182016040528015611cda576020820181803683370190505b5090508181016020015b600019016f181899199a1a9b1b9c1cb0b131b232b360811b600a86061a8153600a8504945084611ce457509392505050565b6001600160a01b038216611d3f5760405162ced3e160e81b815260006004820152602401610acf565b6001600160a01b03838116600081815260016020908152604080832094871680845294825291829020805460ff191686151590811790915591519182527f17307eab39ab6107e8899845ad3d59bd9653f200f220920489ca2b5937696c31910160405180910390a3505050565b611db885858585611ed7565b6001600160a01b03841615611b2e5782513390600103611df15760208481015190840151611dea8389898585896120f4565b5050610d19565b610d19818787878787612218565b60008072184f03e93ff9f4daa797ed6e38ed64bf6a1f0160401b8310611e3e5772184f03e93ff9f4daa797ed6e38ed64bf6a1f0160401b830492506040015b6d04ee2d6d415b85acef81000000008310611e6a576d04ee2d6d415b85acef8100000000830492506020015b662386f26fc100008310611e8857662386f26fc10000830492506010015b6305f5e1008310611ea0576305f5e100830492506008015b6127108310611eb457612710830492506004015b60648310611ec6576064830492506002015b600a83106107225760010192915050565b8051825114611f065781518151604051635b05999160e01b815260048101929092526024820152604401610acf565b3360005b8351811015612015576020818102858101820151908501909101516001600160a01b03881615611fbd576000828152602081815260408083206001600160a01b038c16845290915290205481811015611f96576040516303dee4c560e01b81526001600160a01b038a166004820152602481018290526044810183905260648101849052608401610acf565b6000838152602081815260408083206001600160a01b038d16845290915290209082900390555b6001600160a01b03871615612002576000828152602081815260408083206001600160a01b038b16845290915281208054839290611ffc90849061290d565b90915550505b50508061200e90612920565b9050611f0a565b5082516001036120965760208301516000906020840151909150856001600160a01b0316876001600160a01b0316846001600160a01b03167fc3d58168c5ae7397731d063d5bbf3d657854427343f4c083240f7aacaa2d0f628585604051612087929190918252602082015260400190565b60405180910390a45050611b2e565b836001600160a01b0316856001600160a01b0316826001600160a01b03167f4a39dc06d4c0dbc64b70af90fd698a233a518aa5d07e595d983b8c0526c8f7fb86866040516120e5929190612c3d565b60405180910390a45050505050565b6001600160a01b0384163b15610d195760405163f23a6e6160e01b81526001600160a01b0385169063f23a6e61906121389089908990889088908890600401612c6b565b6020604051808303816000875af1925050508015612173575060408051601f3d908101601f1916820190925261217091810190612cb0565b60015b6121dc573d8080156121a1576040519150601f19603f3d011682016040523d82523d6000602084013e6121a6565b606091505b5080516000036121d457604051632bfa23e760e11b81526001600160a01b0386166004820152602401610acf565b805181602001fd5b6001600160e01b0319811663f23a6e6160e01b146118ab57604051632bfa23e760e11b81526001600160a01b0386166004820152602401610acf565b6001600160a01b0384163b15610d195760405163bc197c8160e01b81526001600160a01b0385169063bc197c819061225c9089908990889088908890600401612ccd565b6020604051808303816000875af1925050508015612297575060408051601f3d908101601f1916820190925261229491810190612cb0565b60015b6122c5573d8080156121a1576040519150601f19603f3d011682016040523d82523d6000602084013e6121a6565b6001600160e01b0319811663bc197c8160e01b146118ab57604051632bfa23e760e11b81526001600160a01b0386166004820152602401610acf565b80356001600160a01b038116811461231857600080fd5b919050565b6000806040838503121561233057600080fd5b61233983612301565b946020939093013593505050565b60006020828403121561235957600080fd5b61236282612301565b9392505050565b6001600160e01b03198116811461182357600080fd5b60006020828403121561239157600080fd5b813561236281612369565b600080602083850312156123af57600080fd5b823567ffffffffffffffff808211156123c757600080fd5b818501915085601f8301126123db57600080fd5b8135818111156123ea57600080fd5b8660208260051b85010111156123ff57600080fd5b60209290920196919550909350505050565b60006020828403121561242357600080fd5b5035919050565b60005b8381101561244557818101518382015260200161242d565b50506000910152565b6000815180845261246681602086016020860161242a565b601f01601f19169290920160200192915050565b602081526000612362602083018461244e565b600080604083850312156124a057600080fd5b50508035926020909101359150565b634e487b7160e01b600052604160045260246000fd5b604051601f8201601f1916810167ffffffffffffffff811182821017156124ee576124ee6124af565b604052919050565b600067ffffffffffffffff821115612510576125106124af565b5060051b60200190565b600082601f83011261252b57600080fd5b8135602061254061253b836124f6565b6124c5565b82815260059290921b8401810191818101908684111561255f57600080fd5b8286015b8481101561257a5780358352918301918301612563565b509695505050505050565b600082601f83011261259657600080fd5b813567ffffffffffffffff8111156125b0576125b06124af565b6125c3601f8201601f19166020016124c5565b8181528460208386010111156125d857600080fd5b816020850160208301376000918101602001919091529392505050565b600080600080600060a0868803121561260d57600080fd5b61261686612301565b945061262460208701612301565b9350604086013567ffffffffffffffff8082111561264157600080fd5b61264d89838a0161251a565b9450606088013591508082111561266357600080fd5b61266f89838a0161251a565b9350608088013591508082111561268557600080fd5b5061269288828901612585565b9150509295509295909350565b600080604083850312156126b257600080fd5b6126bb83612301565b9150602083013580151581146126d057600080fd5b809150509250929050565b600080604083850312156126ee57600080fd5b823567ffffffffffffffff8082111561270657600080fd5b818501915085601f83011261271a57600080fd5b8135602061272a61253b836124f6565b82815260059290921b8401810191818101908984111561274957600080fd5b948201945b8386101561276e5761275f86612301565b8252948201949082019061274e565b9650508601359250508082111561278457600080fd5b506127918582860161251a565b9150509250929050565b600081518084526020808501945080840160005b838110156127cb578151875295820195908201906001016127af565b509495945050505050565b602081526000612362602083018461279b565b600080604083850312156127fc57600080fd5b823567ffffffffffffffff8082111561281457600080fd5b6128208683870161251a565b9350602085013591508082111561278457600080fd5b6000806040838503121561284957600080fd5b61285283612301565b915061286060208401612301565b90509250929050565b600080600080600060a0868803121561288157600080fd5b61288a86612301565b945061289860208701612301565b93506040860135925060608601359150608086013567ffffffffffffffff8111156128c257600080fd5b61269288828901612585565b634e487b7160e01b600052603260045260246000fd5b634e487b7160e01b600052601160045260246000fd5b81810381811115610722576107226128e4565b80820180821115610722576107226128e4565b600060018201612932576129326128e4565b5060010190565b6000815161294b81856020860161242a565b9290920192915050565b7f646174613a6170706c69636174696f6e2f6a736f6e3b6261736536342c00000081526000825161298d81601d85016020870161242a565b91909101601d0192915050565b8082028115828204841417610722576107226128e4565b634e487b7160e01b600052601260045260246000fd5b6000826129d6576129d66129b1565b500490565b6000826129ea576129ea6129b1565b500690565b6402a34b2b9160dd1b815260008251612a0f81600585016020870161242a565b9190910160050192915050565b60008451612a2e81846020890161242a565b8083019050600160fd1b8082528551612a4e816001850160208a0161242a565b60019201918201528351612a6981600284016020880161242a565b0160020195945050505050565b693d913730b6b2911d101160b11b81528451600090612a9c81600a850160208a0161242a565b7f222c2022646563696d616c73223a20302c202261747472696275746573223a20600a918401918201527f5b7b2274726169745f74797065223a202274696572222c2022646973706c6179602a8201527f5f74797065223a20226e756d626572222c202276616c7565223a202200000000604a8201528551612b25816066840160208a0161242a565b7f227d2c207b2274726169745f74797065223a20227465727261696e5f74797065606692909101918201527f222c2022646973706c61795f74797065223a2022737472696e67222c20227661608682015266363ab2911d101160c91b60a68201528451612b998160ad84016020890161242a565b612c1a612c0a612c0460ad848601017f227d2c207b2274726169745f74797065223a20226974656d5f74797065222c2081527f22646973706c61795f74797065223a2022737472696e67222c202276616c7565602082015263111d101160e11b604082015260440190565b87612939565b63227d5d7d60e01b815260040190565b98975050505050505050565b600081612c3557612c356128e4565b506000190190565b604081526000612c50604083018561279b565b8281036020840152612c62818561279b565b95945050505050565b6001600160a01b03868116825285166020820152604081018490526060810183905260a060808201819052600090612ca59083018461244e565b979650505050505050565b600060208284031215612cc257600080fd5b815161236281612369565b6001600160a01b0386811682528516602082015260a060408201819052600090612cf99083018661279b565b8281036060840152612d0b818661279b565b90508281036080840152612c1a818561244e56fe4142434445464748494a4b4c4d4e4f505152535455565758595a6162636465666768696a6b6c6d6e6f707172737475767778797a303132333435363738392b2fa2646970667358221220de4096bb5272d6cb73dcd0afa6040b32cd1fca6498bd54eb512a9ff87e765f4564736f6c6343000814003368747470733a2f2f6769746875622e636f6d2f6d6f6f6e73747265616d2d746f2f646567656e2d747261696c",
  "devdoc": {
    "author": "Moonstream Engineering (engineering@moonstream.to)",
    "errors": {
      "ERC1155InsufficientBalance(address,uint256,uint256,uint256)": [
        {
          "details": "Indicates an error related to the current `balance` of a `sender`. Used in transfers.",
          "params": {
            "balance": "Current balance for the interacting account.",
            "needed": "Minimum amount required to perform a transfer.",
            "sender": "Address whose tokens are being transferred.",
            "tokenId": "Identifier number of a token."
          }
        }
      ],
      "ERC1155InvalidApprover(address)": [
        {
          "details": "Indicates a failure with the `approver` of a token to be approved. Used in approvals.",
          "params": {
            "approver": "Address initiating an approval operation."
          }
        }
      ],
      "ERC1155InvalidArrayLength(uint256,uint256)": [
        {
          "details": "Indicates an array length mismatch between ids and values in a safeBatchTransferFrom operation. Used in batch transfers.",
          "params": {
            "idsLength": "Length of the array of token identifiers",
            "valuesLength": "Length of the array of token amounts"
          }
        }
      ],
      "ERC1155InvalidOperator(address)": [
        {
          "details": "Indicates a failure with the `operator` to be approved. Used in approvals.",
          "params": {
            "operator": "Address that may be allowed to operate on tokens without being their owner."
          }
        }
      ],
      "ERC1155InvalidReceiver(address)": [
        {
          "details": "Indicates a failure with the token `receiver`. Used in transfers.",
          "params": {
            "receiver": "Address to which tokens are being transferred."
          }
        }
      ],
      "ERC1155InvalidSender(address)": [
        {
          "details": "Indicates a failure with the token `sender`. Used in transfers.",
          "params": {
            "sender": "Address whose tokens are being transferred."
          }
        }
      ],
      "ERC1155MissingApprovalForAll(address,address)": [
        {
          "details": "Indicates a failure with the `operator`s approval. Used in transfers.",
          "params": {
            "operator": "Address that may be allowed to operate on tokens without being their owner.",
            "owner": "Address of the current owner of a token."
          }
        }
      ],
      "ReentrancyGuardReentrantCall()": [
        {
          "details": "Unauthorized reentrant call."
        }
      ]
    },
    "events": {
      "ApprovalForAll(address,address,bool)": {
        "details": "Emitted when `account` grants or revokes permission to `operator` to transfer their tokens, according to `approved`."
      },
      "TransferBatch(address,address,address,uint256[],uint256[])": {
        "details": "Equivalent to multiple {TransferSingle} events, where `operator`, `from` and `to` are the same for all transfers."
      },
      "TransferSingle(address,address,address,uint256,uint256)": {
        "details": "Emitted when `value` amount of tokens of type `id` are transferred from `from` to `to` by `operator`."
      },
      "URI(string,uint256)": {
        "details": "Emitted when the URI for token type `id` changes to `value`, if it is a non-programmatic URI. If an {URI} event was emitted for `id`, the standard https://eips.ethereum.org/EIPS/eip-1155#metadata-extensions[guarantees] that `value` will equal the value returned by {IERC1155MetadataURI-uri}."
      }
    },
    "kind": "dev",
    "methods": {
      "accept()": {
        "returns": {
          "_0": "entropy The randomness that was used to determine the outcome of the player's last roll",
          "_1": "_outcome The outcome of the player's last roll - this is 0, 1, 2, 3, or 4 and represents an index in either `UnmodifiedOutcomesCumulativeMass` or `ImprovedOutcomesCumulativeMass` (depending on whether a bonus was applied)",
          "_2": "reward This represents a numerical parameter representing the reward that the player should receive. If the `_outcome` was `0`, this value is irrelevant and should be ignored. If the `_outcome` was `1`, signifying that the player will receive an item, this value is the ERC1155 `tokenID` of the item that will be transferred to the player if they accept the outcome, if the `_outcome` was `2`, `3`, or `4`, this value is the amount of native tokens that will be transferred to the player if they accept the outcome."
        }
      },
      "balanceOf(address,uint256)": {
        "details": "See {IERC1155-balanceOf}."
      },
      "balanceOfBatch(address[],uint256[])": {
        "details": "See {IERC1155-balanceOfBatch}. Requirements: - `accounts` and `ids` must have the same length."
      },
      "constructor": {
        "params": {
          "blocksToAct": "The number of blocks a player has to either reroll or accept the outcome of their current roll.",
          "costToReroll": "The cost in the finest denomination of the native token on the chain to reroll.",
          "costToRoll": "The cost in the finest denomination of the native token on the chain to roll."
        }
      },
      "currentRewards()": {
        "returns": {
          "large": "The current large reward (in Wei)",
          "medium": "The current medium reward (in Wei)",
          "small": "The current small reward (in Wei)"
        }
      },
      "isApprovedForAll(address,address)": {
        "details": "See {IERC1155-isApprovedForAll}."
      },
      "outcome(address,bool)": {
        "params": {
          "bonus": "This boolean signifies whether the outcome should be sampled from the unmodified or the improved outcome distribution",
          "degenerate": "The address of the player"
        },
        "returns": {
          "_0": "entropy The randomness that was used to determine the outcome of the player's last roll",
          "_1": "_outcome The outcome of the player's last roll - this is 0, 1, 2, 3, or 4 and represents an index in either `UnmodifiedOutcomesCumulativeMass` or `ImprovedOutcomesCumulativeMass` (depending on whether a bonus was applied)",
          "_2": "reward This represents a numerical parameter representing the reward that the player should receive. If the `_outcome` was `0`, this value is irrelevant and should be ignored. If the `_outcome` was `1`, signifying that the player will receive an item, this value is the ERC1155 `tokenID` of the item that will be transferred to the player if they accept the outcome, if the `_outcome` was `2`, `3`, or `4`, this value is the amount of native tokens that will be transferred to the player if they accept the outcome."
        }
      },
      "safeBatchTransferFrom(address,address,uint256[],uint256[],bytes)": {
        "details": "See {IERC1155-safeBatchTransferFrom}."
      },
      "safeTransferFrom(address,address,uint256,uint256,bytes)": {
        "details": "See {IERC1155-safeTransferFrom}."
      },
      "setApprovalForAll(address,bool)": {
        "details": "See {IERC1155-setApprovalForAll}."
      }
    },
    "title": "Jackpot Junction game contract",
    "version": 1
  },
  "userdoc": {
    "errors": {
      "DeadlineExceeded()": [
        {
          "notice": "Signifies that the player is no longer able to act because too many blocks elapsed since their last action."
        }
      ],
      "InsufficientItems(uint256)": [
        {
          "notice": "Signifies that the player does not have enough items in their possession to perform an action."
        }
      ],
      "InsufficientValue()": [
        {
          "notice": "Signifies that the player has not provided enough value to perform the action."
        }
      ],
      "InvalidItem(uint256)": [
        {
          "notice": "Signifies that the player attempted to use an invalid item to perform a certain action."
        }
      ],
      "RollInProgress()": [
        {
          "notice": "Signifies that a player cannot take an action that requires them to be out of a roll because it is too soon since they rolled. This error is raised when a player tries to equip or unequip items while they are in the middle of a roll."
        }
      ],
      "WaitForTick()": [
        {
          "notice": "This error is raised to signify that the player needs to wait for at least one more block to elapse."
        }
      ]
    },
    "events": {
      "Award(address,uint256,uint256)": {
        "notice": "Fired when a player accepts the outcome of a roll."
      },
      "Roll(address)": {
        "notice": "Fired when a player rolls (and rerolls)."
      },
      "TierUnlocked(uint256,uint256,uint256,uint256)": {
        "notice": "Fired when a new tier is unlocked for the givem itemType and terrainType. Specifies the tier and its pool ID."
      }
    },
    "kind": "user",
    "methods": {
      "BlocksToAct()": {
        "notice": "How many blocks a player has to act (reroll/accept)."
      },
      "CostToReroll()": {
        "notice": "Cost (finest denomination of native token on the chain) to reroll."
      },
      "CostToRoll()": {
        "notice": "Cost (finest denomination of native token on the chain) to roll."
      },
      "CurrentTier(uint256,uint256)": {
        "notice": "Specifies the largest tier that has been unlocked for a given (itemType, terrainType) pair.Item types: 0 (wagon cover), 1 (wagon body), 2 (wagon wheel), 3 (beast)Terrain types: 0 (plains), 1 (forest), 2 (swamp), 3 (water), 4 (mountain), 5 (desert), 6 (ice)Encoding of ERC1155 pool IDs: tier*28 + terrainType*4 + itemTypeitemType => terrainType => tier"
      },
      "EquippedBeasts(address)": {
        "notice": "EquippedBeasts indicates the poolID of the beasts that are currently equipped by the given player.The mapping is address(player) => poolID + 1.The value stored is poolID + 1 so that 0 indicates that no item is currently equipped in the slot."
      },
      "EquippedBody(address)": {
        "notice": "EquippedBody indicates the poolID of the body that is currently equipped by the given player.The mapping is address(player) => poolID + 1.The value stored is poolID + 1 so that 0 indicates that no item is currently equipped in the slot."
      },
      "EquippedCover(address)": {
        "notice": "EquippedCover indicates the poolID of the cover that is currently equipped by the given player.The mapping is address(player) => poolID + 1.The value stored is poolID + 1 so that 0 indicates that no item is currently equipped in the slot."
      },
      "EquippedWheels(address)": {
        "notice": "EquippedWheels indicates the poolID of the wheels that are currently equipped by the given player.The mapping is address(player) => poolID + 1.The value stored is poolID + 1 so that 0 indicates that no item is currently equipped in the slot."
      },
      "ImprovedOutcomesCumulativeMass(uint256)": {
        "notice": "Cumulative mass function for the improved distribution over outcomes."
      },
      "LastRollBlock(address)": {
        "notice": "The block number of the last roll/re-roll by each player."
      },
      "UnmodifiedOutcomesCumulativeMass(uint256)": {
        "notice": "Cumulative mass function for the unmodified distribution over outcomes."
      },
      "accept()": {
        "notice": "If a player calls this method at least one block after they last rolled and before their block deadline expires, it accepts the outcome of their last roll and transfers the corresponding reward to their account."
      },
      "constructor": {
        "notice": "Creates a JackpotJunction game contract."
      },
      "currentRewards()": {
        "notice": "Returns the current small, medium, and large rewards based on the game contract's native token balance."
      },
      "genera(uint256)": {
        "notice": "Returns the itemType, terrainType, and tier of a given pool ID."
      },
      "hasBonus(address)": {
        "notice": "Returns true if the given player currently has a bonus applied to them from their equipped items and false otherwise."
      },
      "outcome(address,bool)": {
        "notice": "If `outcome` is called at least one block after the player last rolled and before the players block deadline expires, it shows the outcome of the player's last roll."
      },
      "roll()": {
        "notice": "Rolls or rerolls for the `msg.sender`, depending on whether or not whether `BlocksToAct` blocks have elapsed since their last roll. If that number of blocks has elapsed, then the player is rolling and must pay `CostToRoll`. Otherwise, the player is rerolling and must be `CostToReroll`."
      },
      "sampleImprovedOutcomesCumulativeMass(uint256)": {
        "notice": "Samples from bonus distribution over outcomes."
      },
      "sampleUnmodifiedOutcomeCumulativeMass(uint256)": {
        "notice": "Samples from unmodified distribution over outcomes."
      }
    },
    "notice": "This is the game contract for The Degen Trail: Jackpot Junction, a game in world of The Degen Trail.",
    "version": 1
  },
  "storageLayout": {
    "storage": [
      {
        "astId": 178,
        "contract": "src/JackpotJunction.sol:JackpotJunction",
        "label": "_balances",
        "offset": 0,
        "slot": "0",
        "type": "t_mapping(t_uint256,t_mapping(t_address,t_uint256))"
      },
      {
        "astId": 184,
        "contract": "src/JackpotJunction.sol:JackpotJunction",
        "label": "_operatorApprovals",
        "offset": 0,
        "slot": "1",
        "type": "t_mapping(t_address,t_mapping(t_address,t_bool))"
      },
      {
        "astId": 186,
        "contract": "src/JackpotJunction.sol:JackpotJunction",
        "label": "_uri",
        "offset": 0,
        "slot": "2",
        "type": "t_string_storage"
      },
      {
        "astId": 4425,
        "contract": "src/JackpotJunction.sol:JackpotJunction",
        "label": "_status",
        "offset": 0,
        "slot": "3",
        "type": "t_uint256"
      },
      {
        "astId": 7237,
        "contract": "src/JackpotJunction.sol:JackpotJunction",
        "label": "UnmodifiedOutcomesCumulativeMass",
        "offset": 0,
        "slot": "4",
        "type": "t_array(t_uint256)5_storage"
      },
      {
        "astId": 7268,
        "contract": "src/JackpotJunction.sol:JackpotJunction",
        "label": "ImprovedOutcomesCumulativeMass",
        "offset": 0,
        "slot": "9",
        "type": "t_array(t_uint256)5_storage"
      },
      {
        "astId": 7271,
        "contract": "src/JackpotJunction.sol:JackpotJunction",
        "label": "BlocksToAct",
        "offset": 0,
        "slot": "14",
        "type": "t_uint256"
      },
      {
        "astId": 7276,
        "contract": "src/JackpotJunction.sol:JackpotJunction",
        "label": "LastRollBlock",
        "offset": 0,
        "slot": "15",
        "type": "t_mapping(t_address,t_uint256)"
      },
      {
        "astId": 7279,
        "contract": "src/JackpotJunction.sol:JackpotJunction",
        "label": "CostToRoll",
        "offset": 0,
        "slot": "16",
        "type": "t_uint256"
      },
      {
        "astId": 7282,
        "contract": "src/JackpotJunction.sol:JackpotJunction",
        "label": "CostToReroll",
        "offset": 0,
        "slot": "17",
        "type": "t_uint256"
      },
      {
        "astId": 7289,
        "contract": "src/JackpotJunction.sol:JackpotJunction",
        "label": "CurrentTier",
        "offset": 0,
        "slot": "18",
        "type": "t_mapping(t_uint256,t_mapping(t_uint256,t_uint256))"
      },
      {
        "astId": 7294,
        "contract": "src/JackpotJunction.sol:JackpotJunction",
        "label": "EquippedCover",
        "offset": 0,
        "slot": "19",
        "type": "t_mapping(t_address,t_uint256)"
      },
      {
        "astId": 7299,
        "contract": "src/JackpotJunction.sol:JackpotJunction",
        "label": "EquippedBody",
        "offset": 0,
        "slot": "20",
        "type": "t_mapping(t_address,t_uint256)"
      },
      {
        "astId": 7304,
        "contract": "src/JackpotJunction.sol:JackpotJunction",
        "label": "EquippedWheels",
        "offset": 0,
        "slot": "21",
        "type": "t_mapping(t_address,t_uint256)"
      },
      {
        "astId": 7309,
        "contract": "src/JackpotJunction.sol:JackpotJunction",
        "label": "EquippedBeasts",
        "offset": 0,
        "slot": "22",
        "type": "t_mapping(t_address,t_uint256)"
      }
    ],
    "types": {
      "t_address": {
        "encoding": "inplace",
        "label": "address",
        "numberOfBytes": "20"
      },
      "t_array(t_uint256)5_storage": {
        "base": "t_uint256",
        "encoding": "inplace",
        "label": "uint256[5]",
        "numberOfBytes": "160"
      },
      "t_bool": {
        "encoding": "inplace",
        "label": "bool",
        "numberOfBytes": "1"
      },
      "t_mapping(t_address,t_bool)": {
        "encoding": "mapping",
        "key": "t_address",
        "label": "mapping(address => bool)",
        "numberOfBytes": "32",
        "value": "t_bool"
      },
      "t_mapping(t_address,t_mapping(t_address,t_bool))": {
        "encoding": "mapping",
        "key": "t_address",
        "label": "mapping(address => mapping(address => bool))",
        "numberOfBytes": "32",
        "value": "t_mapping(t_address,t_bool)"
      },
      "t_mapping(t_address,t_uint256)": {
        "encoding": "mapping",
        "key": "t_address",
        "label": "mapping(address => uint256)",
        "numberOfBytes": "32",
        "value": "t_uint256"
      },
      "t_mapping(t_uint256,t_mapping(t_address,t_uint256))": {
        "encoding": "mapping",
        "key": "t_uint256",
        "label": "mapping(uint256 => mapping(address => uint256))",
        "numberOfBytes": "32",
        "value": "t_mapping(t_address,t_uint256)"
      },
      "t_mapping(t_uint256,t_mapping(t_uint256,t_uint256))": {
        "encoding": "mapping",
        "key": "t_uint256",
        "label": "mapping(uint256 => mapping(uint256 => uint256))",
        "numberOfBytes": "32",
        "value": "t_mapping(t_uint256,t_uint256)"
      },
      "t_mapping(t_uint256,t_uint256)": {
        "encoding": "mapping",
        "key": "t_uint256",
        "label": "mapping(uint256 => uint256)",
        "numberOfBytes": "32",
        "value": "t_uint256"
      },
      "t_string_storage": {
        "encoding": "bytes",
        "label": "string",
        "numberOfBytes": "32"
      },
      "t_uint256": {
        "encoding": "inplace",
        "label": "uint256",
        "numberOfBytes": "32"
      }
    }
  }
}