{
  "address": "0x7Bc3583717E32529D9f34Df652882e7C1e450D3d",
  "abi": [
    {
      "inputs": [
        {
          "internalType": "uint256",
          "name": "blocksToAct",
          "type": "uint256"
        },
        {
          "internalType": "uint256",
          "name": "costToRoll",
          "type": "uint256"
        },
        {
          "internalType": "uint256",
          "name": "costToReroll",
          "type": "uint256"
        }
      ],
      "stateMutability": "nonpayable",
      "type": "constructor"
    },
    {
      "inputs": [],
      "name": "DeadlineExceeded",
      "type": "error"
    },
    {
      "inputs": [
        {
          "internalType": "address",
          "name": "sender",
          "type": "address"
        },
        {
          "internalType": "uint256",
          "name": "balance",
          "type": "uint256"
        },
        {
          "internalType": "uint256",
          "name": "needed",
          "type": "uint256"
        },
        {
          "internalType": "uint256",
          "name": "tokenId",
          "type": "uint256"
        }
      ],
      "name": "ERC1155InsufficientBalance",
      "type": "error"
    },
    {
      "inputs": [
        {
          "internalType": "address",
          "name": "approver",
          "type": "address"
        }
      ],
      "name": "ERC1155InvalidApprover",
      "type": "error"
    },
    {
      "inputs": [
        {
          "internalType": "uint256",
          "name": "idsLength",
          "type": "uint256"
        },
        {
          "internalType": "uint256",
          "name": "valuesLength",
          "type": "uint256"
        }
      ],
      "name": "ERC1155InvalidArrayLength",
      "type": "error"
    },
    {
      "inputs": [
        {
          "internalType": "address",
          "name": "operator",
          "type": "address"
        }
      ],
      "name": "ERC1155InvalidOperator",
      "type": "error"
    },
    {
      "inputs": [
        {
          "internalType": "address",
          "name": "receiver",
          "type": "address"
        }
      ],
      "name": "ERC1155InvalidReceiver",
      "type": "error"
    },
    {
      "inputs": [
        {
          "internalType": "address",
          "name": "sender",
          "type": "address"
        }
      ],
      "name": "ERC1155InvalidSender",
      "type": "error"
    },
    {
      "inputs": [
        {
          "internalType": "address",
          "name": "operator",
          "type": "address"
        },
        {
          "internalType": "address",
          "name": "owner",
          "type": "address"
        }
      ],
      "name": "ERC1155MissingApprovalForAll",
      "type": "error"
    },
    {
      "inputs": [
        {
          "internalType": "uint256",
          "name": "poolID",
          "type": "uint256"
        }
      ],
      "name": "InsufficientItems",
      "type": "error"
    },
    {
      "inputs": [],
      "name": "InsufficientValue",
      "type": "error"
    },
    {
      "inputs": [
        {
          "internalType": "uint256",
          "name": "poolID",
          "type": "uint256"
        }
      ],
      "name": "InvalidItem",
      "type": "error"
    },
    {
      "inputs": [],
      "name": "ReentrancyGuardReentrantCall",
      "type": "error"
    },
    {
      "inputs": [],
      "name": "RollInProgress",
      "type": "error"
    },
    {
      "inputs": [],
      "name": "WaitForTick",
      "type": "error"
    },
    {
      "anonymous": false,
      "inputs": [
        {
          "indexed": true,
          "internalType": "address",
          "name": "account",
          "type": "address"
        },
        {
          "indexed": true,
          "internalType": "address",
          "name": "operator",
          "type": "address"
        },
        {
          "indexed": false,
          "internalType": "bool",
          "name": "approved",
          "type": "bool"
        }
      ],
      "name": "ApprovalForAll",
      "type": "event"
    },
    {
      "anonymous": false,
      "inputs": [
        {
          "indexed": true,
          "internalType": "address",
          "name": "player",
          "type": "address"
        },
        {
          "indexed": true,
          "internalType": "uint256",
          "name": "outcome",
          "type": "uint256"
        },
        {
          "indexed": false,
          "internalType": "uint256",
          "name": "value",
          "type": "uint256"
        }
      ],
      "name": "Award",
      "type": "event"
    },
    {
      "anonymous": false,
      "inputs": [
        {
          "indexed": true,
          "internalType": "address",
          "name": "player",
          "type": "address"
        }
      ],
      "name": "Roll",
      "type": "event"
    },
    {
      "anonymous": false,
      "inputs": [
        {
          "indexed": true,
          "internalType": "uint256",
          "name": "itemType",
          "type": "uint256"
        },
        {
          "indexed": true,
          "internalType": "uint256",
          "name": "terrainType",
          "type": "uint256"
        },
        {
          "indexed": true,
          "internalType": "uint256",
          "name": "tier",
          "type": "uint256"
        },
        {
          "indexed": false,
          "internalType": "uint256",
          "name": "poolID",
          "type": "uint256"
        }
      ],
      "name": "TierUnlocked",
      "type": "event"
    },
    {
      "anonymous": false,
      "inputs": [
        {
          "indexed": true,
          "internalType": "address",
          "name": "operator",
          "type": "address"
        },
        {
          "indexed": true,
          "internalType": "address",
          "name": "from",
          "type": "address"
        },
        {
          "indexed": true,
          "internalType": "address",
          "name": "to",
          "type": "address"
        },
        {
          "indexed": false,
          "internalType": "uint256[]",
          "name": "ids",
          "type": "uint256[]"
        },
        {
          "indexed": false,
          "internalType": "uint256[]",
          "name": "values",
          "type": "uint256[]"
        }
      ],
      "name": "TransferBatch",
      "type": "event"
    },
    {
      "anonymous": false,
      "inputs": [
        {
          "indexed": true,
          "internalType": "address",
          "name": "operator",
          "type": "address"
        },
        {
          "indexed": true,
          "internalType": "address",
          "name": "from",
          "type": "address"
        },
        {
          "indexed": true,
          "internalType": "address",
          "name": "to",
          "type": "address"
        },
        {
          "indexed": false,
          "internalType": "uint256",
          "name": "id",
          "type": "uint256"
        },
        {
          "indexed": false,
          "internalType": "uint256",
          "name": "value",
          "type": "uint256"
        }
      ],
      "name": "TransferSingle",
      "type": "event"
    },
    {
      "anonymous": false,
      "inputs": [
        {
          "indexed": false,
          "internalType": "string",
          "name": "value",
          "type": "string"
        },
        {
          "indexed": true,
          "internalType": "uint256",
          "name": "id",
          "type": "uint256"
        }
      ],
      "name": "URI",
      "type": "event"
    },
    {
      "inputs": [],
      "name": "BlocksToAct",
      "outputs": [
        {
          "internalType": "uint256",
          "name": "",
          "type": "uint256"
        }
      ],
      "stateMutability": "view",
      "type": "function"
    },
    {
      "inputs": [],
      "name": "CostToReroll",
      "outputs": [
        {
          "internalType": "uint256",
          "name": "",
          "type": "uint256"
        }
      ],
      "stateMutability": "view",
      "type": "function"
    },
    {
      "inputs": [],
      "name": "CostToRoll",
      "outputs": [
        {
          "internalType": "uint256",
          "name": "",
          "type": "uint256"
        }
      ],
      "stateMutability": "view",
      "type": "function"
    },
    {
      "inputs": [
        {
          "internalType": "uint256",
          "name": "",
          "type": "uint256"
        },
        {
          "internalType": "uint256",
          "name": "",
          "type": "uint256"
        }
      ],
      "name": "CurrentTier",
      "outputs": [
        {
          "internalType": "uint256",
          "name": "",
          "type": "uint256"
        }
      ],
      "stateMutability": "view",
      "type": "function"
    },
    {
      "inputs": [
        {
          "internalType": "address",
          "name": "",
          "type": "address"
        }
      ],
      "name": "EquippedBeasts",
      "outputs": [
        {
          "internalType": "uint256",
          "name": "",
          "type": "uint256"
        }
      ],
      "stateMutability": "view",
      "type": "function"
    },
    {
      "inputs": [
        {
          "internalType": "address",
          "name": "",
          "type": "address"
        }
      ],
      "name": "EquippedBody",
      "outputs": [
        {
          "internalType": "uint256",
          "name": "",
          "type": "uint256"
        }
      ],
      "stateMutability": "view",
      "type": "function"
    },
    {
      "inputs": [
        {
          "internalType": "address",
          "name": "",
          "type": "address"
        }
      ],
      "name": "EquippedCover",
      "outputs": [
        {
          "internalType": "uint256",
          "name": "",
          "type": "uint256"
        }
      ],
      "stateMutability": "view",
      "type": "function"
    },
    {
      "inputs": [
        {
          "internalType": "address",
          "name": "",
          "type": "address"
        }
      ],
      "name": "EquippedWheels",
      "outputs": [
        {
          "internalType": "uint256",
          "name": "",
          "type": "uint256"
        }
      ],
      "stateMutability": "view",
      "type": "function"
    },
    {
      "inputs": [
        {
          "internalType": "uint256",
          "name": "",
          "type": "uint256"
        }
      ],
      "name": "ImprovedOutcomesCumulativeMass",
      "outputs": [
        {
          "internalType": "uint256",
          "name": "",
          "type": "uint256"
        }
      ],
      "stateMutability": "view",
      "type": "function"
    },
    {
      "inputs": [
        {
          "internalType": "address",
          "name": "",
          "type": "address"
        }
      ],
      "name": "LastRollBlock",
      "outputs": [
        {
          "internalType": "uint256",
          "name": "",
          "type": "uint256"
        }
      ],
      "stateMutability": "view",
      "type": "function"
    },
    {
      "inputs": [
        {
          "internalType": "uint256",
          "name": "",
          "type": "uint256"
        }
      ],
      "name": "UnmodifiedOutcomesCumulativeMass",
      "outputs": [
        {
          "internalType": "uint256",
          "name": "",
          "type": "uint256"
        }
      ],
      "stateMutability": "view",
      "type": "function"
    },
    {
      "inputs": [],
      "name": "accept",
      "outputs": [
        {
          "internalType": "uint256",
          "name": "",
          "type": "uint256"
        },
        {
          "internalType": "uint256",
          "name": "",
          "type": "uint256"
        },
        {
          "internalType": "uint256",
          "name": "",
          "type": "uint256"
        }
      ],
      "stateMutability": "nonpayable",
      "type": "function"
    },
    {
      "inputs": [
        {
          "internalType": "address",
          "name": "account",
          "type": "address"
        },
        {
          "internalType": "uint256",
          "name": "id",
          "type": "uint256"
        }
      ],
      "name": "balanceOf",
      "outputs": [
        {
          "internalType": "uint256",
          "name": "",
          "type": "uint256"
        }
      ],
      "stateMutability": "view",
      "type": "function"
    },
    {
      "inputs": [
        {
          "internalType": "address[]",
          "name": "accounts",
          "type": "address[]"
        },
        {
          "internalType": "uint256[]",
          "name": "ids",
          "type": "uint256[]"
        }
      ],
      "name": "balanceOfBatch",
      "outputs": [
        {
          "internalType": "uint256[]",
          "name": "",
          "type": "uint256[]"
        }
      ],
      "stateMutability": "view",
      "type": "function"
    },
    {
      "inputs": [
        {
          "internalType": "uint256",
          "name": "poolID",
          "type": "uint256"
        },
        {
          "internalType": "uint256",
          "name": "amount",
          "type": "uint256"
        }
      ],
      "name": "burn",
      "outputs": [],
      "stateMutability": "nonpayable",
      "type": "function"
    },
    {
      "inputs": [
        {
          "internalType": "uint256[]",
          "name": "poolIDs",
          "type": "uint256[]"
        },
        {
          "internalType": "uint256[]",
          "name": "amounts",
          "type": "uint256[]"
        }
      ],
      "name": "burnBatch",
      "outputs": [],
      "stateMutability": "nonpayable",
      "type": "function"
    },
    {
      "inputs": [
        {
          "internalType": "uint256",
          "name": "poolID",
          "type": "uint256"
        },
        {
          "internalType": "uint256",
          "name": "numOutputs",
          "type": "uint256"
        }
      ],
      "name": "craft",
      "outputs": [
        {
          "internalType": "uint256",
          "name": "newPoolID",
          "type": "uint256"
        }
      ],
      "stateMutability": "nonpayable",
      "type": "function"
    },
    {
      "inputs": [
        {
          "internalType": "uint256[]",
          "name": "poolIDs",
          "type": "uint256[]"
        }
      ],
      "name": "equip",
      "outputs": [],
      "stateMutability": "nonpayable",
      "type": "function"
    },
    {
      "inputs": [
        {
          "internalType": "uint256",
          "name": "poolID",
          "type": "uint256"
        }
      ],
      "name": "genera",
      "outputs": [
        {
          "internalType": "uint256",
          "name": "itemType",
          "type": "uint256"
        },
        {
          "internalType": "uint256",
          "name": "terrainType",
          "type": "uint256"
        },
        {
          "internalType": "uint256",
          "name": "tier",
          "type": "uint256"
        }
      ],
      "stateMutability": "pure",
      "type": "function"
    },
    {
      "inputs": [
        {
          "internalType": "address",
          "name": "degenerate",
          "type": "address"
        }
      ],
      "name": "hasBonus",
      "outputs": [
        {
          "internalType": "bool",
          "name": "bonus",
          "type": "bool"
        }
      ],
      "stateMutability": "view",
      "type": "function"
    },
    {
      "inputs": [
        {
          "internalType": "address",
          "name": "account",
          "type": "address"
        },
        {
          "internalType": "address",
          "name": "operator",
          "type": "address"
        }
      ],
      "name": "isApprovedForAll",
      "outputs": [
        {
          "internalType": "bool",
          "name": "",
          "type": "bool"
        }
      ],
      "stateMutability": "view",
      "type": "function"
    },
    {
      "inputs": [
        {
          "internalType": "address",
          "name": "degenerate",
          "type": "address"
        },
        {
          "internalType": "bool",
          "name": "bonus",
          "type": "bool"
        }
      ],
      "name": "outcome",
      "outputs": [
        {
          "internalType": "uint256",
          "name": "",
          "type": "uint256"
        },
        {
          "internalType": "uint256",
          "name": "",
          "type": "uint256"
        },
        {
          "internalType": "uint256",
          "name": "",
          "type": "uint256"
        }
      ],
      "stateMutability": "view",
      "type": "function"
    },
    {
      "inputs": [],
      "name": "roll",
      "outputs": [],
      "stateMutability": "payable",
      "type": "function"
    },
    {
      "inputs": [
        {
          "internalType": "address",
          "name": "from",
          "type": "address"
        },
        {
          "internalType": "address",
          "name": "to",
          "type": "address"
        },
        {
          "internalType": "uint256[]",
          "name": "ids",
          "type": "uint256[]"
        },
        {
          "internalType": "uint256[]",
          "name": "values",
          "type": "uint256[]"
        },
        {
          "internalType": "bytes",
          "name": "data",
          "type": "bytes"
        }
      ],
      "name": "safeBatchTransferFrom",
      "outputs": [],
      "stateMutability": "nonpayable",
      "type": "function"
    },
    {
      "inputs": [
        {
          "internalType": "address",
          "name": "from",
          "type": "address"
        },
        {
          "internalType": "address",
          "name": "to",
          "type": "address"
        },
        {
          "internalType": "uint256",
          "name": "id",
          "type": "uint256"
        },
        {
          "internalType": "uint256",
          "name": "value",
          "type": "uint256"
        },
        {
          "internalType": "bytes",
          "name": "data",
          "type": "bytes"
        }
      ],
      "name": "safeTransferFrom",
      "outputs": [],
      "stateMutability": "nonpayable",
      "type": "function"
    },
    {
      "inputs": [
        {
          "internalType": "uint256",
          "name": "entropy",
          "type": "uint256"
        }
      ],
      "name": "sampleImprovedOutcomesCumulativeMass",
      "outputs": [
        {
          "internalType": "uint256",
          "name": "",
          "type": "uint256"
        }
      ],
      "stateMutability": "view",
      "type": "function"
    },
    {
      "inputs": [
        {
          "internalType": "uint256",
          "name": "entropy",
          "type": "uint256"
        }
      ],
      "name": "sampleUnmodifiedOutcomeCumulativeMass",
      "outputs": [
        {
          "internalType": "uint256",
          "name": "",
          "type": "uint256"
        }
      ],
      "stateMutability": "view",
      "type": "function"
    },
    {
      "inputs": [
        {
          "internalType": "address",
          "name": "operator",
          "type": "address"
        },
        {
          "internalType": "bool",
          "name": "approved",
          "type": "bool"
        }
      ],
      "name": "setApprovalForAll",
      "outputs": [],
      "stateMutability": "nonpayable",
      "type": "function"
    },
    {
      "inputs": [
        {
          "internalType": "bytes4",
          "name": "interfaceId",
          "type": "bytes4"
        }
      ],
      "name": "supportsInterface",
      "outputs": [
        {
          "internalType": "bool",
          "name": "",
          "type": "bool"
        }
      ],
      "stateMutability": "view",
      "type": "function"
    },
    {
      "inputs": [],
      "name": "unequip",
      "outputs": [],
      "stateMutability": "nonpayable",
      "type": "function"
    },
    {
      "inputs": [
        {
          "internalType": "uint256",
          "name": "",
          "type": "uint256"
        }
      ],
      "name": "uri",
      "outputs": [
        {
          "internalType": "string",
          "name": "",
          "type": "string"
        }
      ],
      "stateMutability": "view",
      "type": "function"
    },
    {
      "stateMutability": "payable",
      "type": "receive"
    }
  ],
  "transactionHash": "0xf8da689f8132c859e82a8d0ca844dffe06f406db6817f5def58ea6de592091ad",
  "args": [
    10,
    10,
    5
  ],
  "numDeployments": 1,
  "solcInputHash": "38903097e28bcdc91352c83e4df2b083",
  "bytecode": "0x610120604052620800006080908152620e3d6660a052620fd6ff60c052620ffff660e05262100000610100526200003b9060049060056200019e565b506040805160a081018252620729238152620d66896020820152620fc37291810191909152620ffff16060820152621000006080820152620000829060099060056200019e565b503480156200009057600080fd5b50604051620028d0380380620028d0833981016040819052620000b391620001ff565b6040518060600160405280602c8152602001620028a4602c9139620000d8816200018c565b506001600355600e8390556010829055601181905560005b6004811015620001825760005b60078110156200016c57600081837f4b4325b9305cc4ce94c0e31c581c16ade0808971cfac8470d7a9c67ddbc9f629816200013a84600462000244565b62000146919062000264565b60405190815260200160405180910390a48062000163816200027a565b915050620000fd565b508062000179816200027a565b915050620000f0565b5050505062000407565b60026200019a82826200033b565b5050565b8260058101928215620001d6579160200282015b82811115620001d6578251829062ffffff16905591602001919060010190620001b2565b50620001e4929150620001e8565b5090565b5b80821115620001e45760008155600101620001e9565b6000806000606084860312156200021557600080fd5b8351925060208401519150604084015190509250925092565b634e487b7160e01b600052601160045260246000fd5b80820281158282048414176200025e576200025e6200022e565b92915050565b808201808211156200025e576200025e6200022e565b6000600182016200028f576200028f6200022e565b5060010190565b634e487b7160e01b600052604160045260246000fd5b600181811c90821680620002c157607f821691505b602082108103620002e257634e487b7160e01b600052602260045260246000fd5b50919050565b601f8211156200033657600081815260208120601f850160051c81016020861015620003115750805b601f850160051c820191505b8181101562000332578281556001016200031d565b5050505b505050565b81516001600160401b0381111562000357576200035762000296565b6200036f81620003688454620002ac565b84620002e8565b602080601f831160018114620003a757600084156200038e5750858301515b600019600386901b1c1916600185901b17855562000332565b600085815260208120601f198616915b82811015620003d857888601518255948401946001909101908401620003b7565b5085821015620003f75787850151600019600388901b60f8161c191681555b5050505050600190811b01905550565b61248d80620004176000396000f3fe6080604052600436106101db5760003560e01c80636c08995d11610102578063be59cce311610095578063e32d569011610064578063e32d5690146105a1578063e985e9c5146105ce578063ecefbad8146105ee578063f242432a1461060e57600080fd5b8063be59cce31461051e578063cd5e3c5d14610534578063cdf2f0ec1461053c578063dd88fa7f1461056957600080fd5b8063b390c0ab116100d1578063b390c0ab146104b3578063b870fe80146104d3578063b8f905c8146104e9578063b9c2edf71461050957600080fd5b80636c08995d1461042657806383ca4b6f146104465780639a0facc214610466578063a22cb4651461049357600080fd5b8063289137a11161017a578063418145cf11610149578063418145cf1461039657806344dcd143146103b65780634e1273f4146103e357806350b8aa921461041057600080fd5b8063289137a1146103165780632eb2c2d6146103365780633a134f78146103565780633a259e6a1461037657600080fd5b806303f2f420116101b657806303f2f420146102775780630e89341c1461029957806318ce0a4b146102c65780632852b71c146102e657600080fd5b8062fdd58e146101e7578063010c9b6e1461021a57806301ffc9a71461024757600080fd5b366101e257005b600080fd5b3480156101f357600080fd5b50610207610202366004611cc8565b61062e565b6040519081526020015b60405180910390f35b34801561022657600080fd5b50610207610235366004611cf2565b60146020526000908152604090205481565b34801561025357600080fd5b50610267610262366004611d2a565b610656565b6040519015158152602001610211565b34801561028357600080fd5b50610297610292366004611d47565b6106a6565b005b3480156102a557600080fd5b506102b96102b4366004611dbc565b610a0f565b6040516102119190611e1b565b3480156102d257600080fd5b506102076102e1366004611dbc565b610aa3565b3480156102f257600080fd5b506102fb610aba565b60408051938452602084019290925290820152606001610211565b34801561032257600080fd5b50610207610331366004611e2e565b610b14565b34801561034257600080fd5b50610297610351366004611f96565b610c2a565b34801561036257600080fd5b506102fb610371366004611dbc565b610c91565b34801561038257600080fd5b506102fb610391366004612040565b610cce565b3480156103a257600080fd5b506102076103b1366004611dbc565b610e39565b3480156103c257600080fd5b506102076103d1366004611cf2565b60166020526000908152604090205481565b3480156103ef57600080fd5b506104036103fe36600461207c565b610e49565b6040516102119190612177565b34801561041c57600080fd5b5061020760105481565b34801561043257600080fd5b50610207610441366004611dbc565b610f1e565b34801561045257600080fd5b5061029761046136600461218a565b610f81565b34801561047257600080fd5b50610207610481366004611cf2565b600f6020526000908152604090205481565b34801561049f57600080fd5b506102976104ae366004612040565b610f8c565b3480156104bf57600080fd5b506102976104ce366004611e2e565b610f97565b3480156104df57600080fd5b5061020760115481565b3480156104f557600080fd5b50610267610504366004611cf2565b610fa2565b34801561051557600080fd5b50610297611128565b34801561052a57600080fd5b50610207600e5481565b6102976112ca565b34801561054857600080fd5b50610207610557366004611cf2565b60156020526000908152604090205481565b34801561057557600080fd5b50610207610584366004611e2e565b601260209081526000928352604080842090915290825290205481565b3480156105ad57600080fd5b506102076105bc366004611cf2565b60136020526000908152604090205481565b3480156105da57600080fd5b506102676105e93660046121d7565b611351565b3480156105fa57600080fd5b50610207610609366004611dbc565b61137f565b34801561061a57600080fd5b5061029761062936600461220a565b6113cb565b6000818152602081815260408083206001600160a01b03861684529091529020545b92915050565b60006001600160e01b03198216636cdb3d1360e11b148061068757506001600160e01b031982166303a24d0760e21b145b8061065057506301ffc9a760e01b6001600160e01b0319831614610650565b6106ae61142a565b6106b733611454565b60005b81811015610a005760006106e58484848181106106d9576106d961226f565b90506020020135610c91565b50509050806000036107b157336000908152601360205260408120541561074157336000908152601360205260409020546107229060019061229b565b905061074130338360016040518060200160405280600081525061149c565b61077633308787878181106107585761075861226f565b9050602002013560016040518060200160405280600081525061149c565b8484848181106107885761078861226f565b90506020020135600161079b91906122ae565b33600090815260136020526040902055506109ed565b8060010361085b57336000908152601460205260408120541561080957336000908152601460205260409020546107ea9060019061229b565b905061080930338360016040518060200160405280600081525061149c565b61082033308787878181106107585761075861226f565b8484848181106108325761083261226f565b90506020020135600161084591906122ae565b33600090815260146020526040902055506109ed565b806002036109055733600090815260156020526040812054156108b357336000908152601560205260409020546108949060019061229b565b90506108b330338360016040518060200160405280600081525061149c565b6108ca33308787878181106107585761075861226f565b8484848181106108dc576108dc61226f565b9050602002013560016108ef91906122ae565b33600090815260156020526040902055506109ed565b806003036109af57336000908152601660205260408120541561095d573360009081526016602052604090205461093e9060019061229b565b905061095d30338360016040518060200160405280600081525061149c565b61097433308787878181106107585761075861226f565b8484848181106109865761098661226f565b90506020020135600161099991906122ae565b33600090815260166020526040902055506109ed565b8383838181106109c1576109c161226f565b90506020020135604051633d39bacf60e11b81526004016109e491815260200190565b60405180910390fd5b50806109f8816122c1565b9150506106ba565b50610a0b6001600355565b5050565b606060028054610a1e906122da565b80601f0160208091040260200160405190810160405280929190818152602001828054610a4a906122da565b8015610a975780601f10610a6c57610100808354040283529160200191610a97565b820191906000526020600020905b815481529060010190602001808311610a7a57829003601f168201915b50505050509050919050565b60098160058110610ab357600080fd5b0154905081565b6000806000610ac761142a565b6000806000610ad93361039133610fa2565b925092509250610ae9828261152a565b610afe336000908152600f6020526040812055565b91945092509050610b0f6001600355565b909192565b6000610b1e61142a565b610b29826002612314565b610b33338561062e565b1015610b5557604051633bf0eca360e21b8152600481018490526024016109e4565b610b6083601c6122ae565b9050610b773384610b72856002612314565b6115dc565b610b923382846040518060200160405280600081525061164b565b6000806000610ba084610c91565b60008381526012602090815260408083208584529091529020549295509093509150811115610c1d57600083815260126020908152604080832085845282529182902083905590518581528291849186917f4b4325b9305cc4ce94c0e31c581c16ade0808971cfac8470d7a9c67ddbc9f629910160405180910390a45b5050506106506001600355565b336001600160a01b0386168114801590610c4b5750610c498682611351565b155b15610c7c5760405163711bec9160e11b81526001600160a01b038083166004830152871660248201526044016109e4565b610c8986868686866116a8565b505050505050565b60008080610ca0601c85612341565b90506004610caf601c86612355565b610cb99190612341565b9150610cc6600485612355565b949193509150565b6001600160a01b0382166000908152600f6020526040812054819081904311610d0a5760405163bfc2936d60e01b815260040160405180910390fd5b610d1385611708565b6001600160a01b0385166000818152600f6020908152604080832054815190408184015280820194909452805180850382018152606090940190528251920191909120908515610d6d57610d668261137f565b9050610d79565b610d7682610f1e565b90505b600081600103610dd9576000610da560076e3fffffffffffffffffffffffffffff601487901c16612355565b90506000610db86004608a87901c612355565b905080610dc6836004612314565b610dd091906122ae565b92505050610e2b565b81600203610e0b57601054610df390600181901c906122ae565b90504760061c811115610e0657504760061c5b610e2b565b81600303610e1d57504760061c610e2b565b81600403610e2b57504760011c5b919450925090509250925092565b60048160058110610ab357600080fd5b60608151835114610e7a5781518351604051635b05999160e01b8152600481019290925260248201526044016109e4565b6000835167ffffffffffffffff811115610e9657610e96611e50565b604051908082528060200260200182016040528015610ebf578160200160208202803683370190505b50905060005b8451811015610f1657602080820286010151610ee99060208084028701015161062e565b828281518110610efb57610efb61226f565b6020908102919091010152610f0f816122c1565b9050610ec5565b509392505050565b6000620fffff82166004820154811015610f3b5750600092915050565b600554811015610f4e5750600192915050565b600654811015610f615750600292915050565b600460035b0154811015610f785750600392915050565b50600492915050565b610a0b33838361174e565b610a0b338383611799565b610a0b3383836115dc565b6001600160a01b038116600090815260136020908152604080832054601483528184205460158452828520546016909452918420549092908315801590610fe857508215155b8015610ff357508115155b8015610ffe57508015155b1561111f5760008060008061101288610c91565b60008381526012602090815260408083208584529091529020549295509350915082900361103f57600198505b809350881561108a5761105187610c91565b600083815260126020908152604080832085845290915290205492955093509150821415806110805750838114155b1561108a57600098505b88156110d25761109986610c91565b600083815260126020908152604080832085845290915290205492955093509150821415806110c85750838114155b156110d257600098505b881561111a576110e185610c91565b600083815260126020908152604080832085845290915290205492955093509150821415806111105750838114155b1561111a57600098505b505050505b50505050919050565b61113061142a565b61113933611454565b336000908152601360205260408120541561119a573360009081526013602052604090205461116a9060019061229b565b905061118930338360016040518060200160405280600081525061149c565b336000908152601360205260408120555b33600090815260146020526040902054156111fb57336000908152601460205260409020546111cb9060019061229b565b90506111ea30338360016040518060200160405280600081525061149c565b336000908152601460205260408120555b336000908152601560205260409020541561125c573360009081526015602052604090205461122c9060019061229b565b905061124b30338360016040518060200160405280600081525061149c565b336000908152601560205260408120555b33600090815260166020526040902054156112bd573360009081526016602052604090205461128d9060019061229b565b90506112ac30338360016040518060200160405280600081525061149c565b336000908152601660205260408120555b506112c86001600355565b565b601054600e54336000908152600f60205260409020546112ea91906122ae565b43116112f557506011545b803410156113165760405163044044a560e21b815260040160405180910390fd5b336000818152600f6020526040808220439055517f663b85167cccb9640fb0a935c4853ea50b0f3dd07d2590ca19942153136cef569190a250565b6001600160a01b03918216600090815260016020908152604080832093909416825291909152205460ff1690565b6000620fffff8216600982015481101561139c5750600092915050565b600a548110156113af5750600192915050565b600b548110156113c25750600292915050565b60096003610f66565b336001600160a01b03861681148015906113ec57506113ea8682611351565b155b1561141d5760405163711bec9160e11b81526001600160a01b038083166004830152871660248201526044016109e4565b610c89868686868661149c565b60026003540361144d57604051633ee5aeb560e01b815260040160405180910390fd5b6002600355565b600e546001600160a01b0382166000908152600f602052604090205461147a91906122ae565b43116114995760405163411931ff60e01b815260040160405180910390fd5b50565b6001600160a01b0384166114c657604051632bfa23e760e11b8152600060048201526024016109e4565b6001600160a01b0385166114ef57604051626a0d4560e21b8152600060048201526024016109e4565b60408051600180825260208201869052818301908152606082018590526080820190925290611521878784848761182f565b50505050505050565b816001036115535761154e338260016040518060200160405280600081525061164b565b6115a1565b81600214806115625750816003145b8061156d5750816004145b156115a157604051339082156108fc029083906000818181858888f1935050505015801561159f573d6000803e3d6000fd5b505b604051818152829033907f1187560d7b166b3122e71aedb88f19cf2f33b2d141b513fde3ca2562d19d1bcb9060200160405180910390a35050565b6001600160a01b03831661160557604051626a0d4560e21b8152600060048201526024016109e4565b604080516001808252602082018590528183019081526060820184905260a082019092526000608082018181529192916116449187918590859061182f565b5050505050565b6001600160a01b03841661167557604051632bfa23e760e11b8152600060048201526024016109e4565b60408051600180825260208201869052818301908152606082018590526080820190925290610c8960008784848761182f565b6001600160a01b0384166116d257604051632bfa23e760e11b8152600060048201526024016109e4565b6001600160a01b0385166116fb57604051626a0d4560e21b8152600060048201526024016109e4565b611644858585858561182f565b600e546001600160a01b0382166000908152600f602052604090205461172e91906122ae565b4311156114995760405163559895a360e01b815260040160405180910390fd5b6001600160a01b03831661177757604051626a0d4560e21b8152600060048201526024016109e4565b61179483600084846040518060200160405280600081525061182f565b505050565b6001600160a01b0382166117c25760405162ced3e160e81b8152600060048201526024016109e4565b6001600160a01b03838116600081815260016020908152604080832094871680845294825291829020805460ff191686151590811790915591519182527f17307eab39ab6107e8899845ad3d59bd9653f200f220920489ca2b5937696c31910160405180910390a3505050565b61183b85858585611882565b6001600160a01b038416156116445782513390600103611874576020848101519084015161186d838989858589611a9f565b5050610c89565b610c89818787878787611bc3565b80518251146118b15781518151604051635b05999160e01b8152600481019290925260248201526044016109e4565b3360005b83518110156119c0576020818102858101820151908501909101516001600160a01b03881615611968576000828152602081815260408083206001600160a01b038c16845290915290205481811015611941576040516303dee4c560e01b81526001600160a01b038a1660048201526024810182905260448101839052606481018490526084016109e4565b6000838152602081815260408083206001600160a01b038d16845290915290209082900390555b6001600160a01b038716156119ad576000828152602081815260408083206001600160a01b038b168452909152812080548392906119a79084906122ae565b90915550505b5050806119b9906122c1565b90506118b5565b508251600103611a415760208301516000906020840151909150856001600160a01b0316876001600160a01b0316846001600160a01b03167fc3d58168c5ae7397731d063d5bbf3d657854427343f4c083240f7aacaa2d0f628585604051611a32929190918252602082015260400190565b60405180910390a45050611644565b836001600160a01b0316856001600160a01b0316826001600160a01b03167f4a39dc06d4c0dbc64b70af90fd698a233a518aa5d07e595d983b8c0526c8f7fb8686604051611a90929190612369565b60405180910390a45050505050565b6001600160a01b0384163b15610c895760405163f23a6e6160e01b81526001600160a01b0385169063f23a6e6190611ae39089908990889088908890600401612397565b6020604051808303816000875af1925050508015611b1e575060408051601f3d908101601f19168201909252611b1b918101906123dc565b60015b611b87573d808015611b4c576040519150601f19603f3d011682016040523d82523d6000602084013e611b51565b606091505b508051600003611b7f57604051632bfa23e760e11b81526001600160a01b03861660048201526024016109e4565b805181602001fd5b6001600160e01b0319811663f23a6e6160e01b1461152157604051632bfa23e760e11b81526001600160a01b03861660048201526024016109e4565b6001600160a01b0384163b15610c895760405163bc197c8160e01b81526001600160a01b0385169063bc197c8190611c0790899089908890889088906004016123f9565b6020604051808303816000875af1925050508015611c42575060408051601f3d908101601f19168201909252611c3f918101906123dc565b60015b611c70573d808015611b4c576040519150601f19603f3d011682016040523d82523d6000602084013e611b51565b6001600160e01b0319811663bc197c8160e01b1461152157604051632bfa23e760e11b81526001600160a01b03861660048201526024016109e4565b80356001600160a01b0381168114611cc357600080fd5b919050565b60008060408385031215611cdb57600080fd5b611ce483611cac565b946020939093013593505050565b600060208284031215611d0457600080fd5b611d0d82611cac565b9392505050565b6001600160e01b03198116811461149957600080fd5b600060208284031215611d3c57600080fd5b8135611d0d81611d14565b60008060208385031215611d5a57600080fd5b823567ffffffffffffffff80821115611d7257600080fd5b818501915085601f830112611d8657600080fd5b813581811115611d9557600080fd5b8660208260051b8501011115611daa57600080fd5b60209290920196919550909350505050565b600060208284031215611dce57600080fd5b5035919050565b6000815180845260005b81811015611dfb57602081850181015186830182015201611ddf565b506000602082860101526020601f19601f83011685010191505092915050565b602081526000611d0d6020830184611dd5565b60008060408385031215611e4157600080fd5b50508035926020909101359150565b634e487b7160e01b600052604160045260246000fd5b604051601f8201601f1916810167ffffffffffffffff81118282101715611e8f57611e8f611e50565b604052919050565b600067ffffffffffffffff821115611eb157611eb1611e50565b5060051b60200190565b600082601f830112611ecc57600080fd5b81356020611ee1611edc83611e97565b611e66565b82815260059290921b84018101918181019086841115611f0057600080fd5b8286015b84811015611f1b5780358352918301918301611f04565b509695505050505050565b600082601f830112611f3757600080fd5b813567ffffffffffffffff811115611f5157611f51611e50565b611f64601f8201601f1916602001611e66565b818152846020838601011115611f7957600080fd5b816020850160208301376000918101602001919091529392505050565b600080600080600060a08688031215611fae57600080fd5b611fb786611cac565b9450611fc560208701611cac565b9350604086013567ffffffffffffffff80821115611fe257600080fd5b611fee89838a01611ebb565b9450606088013591508082111561200457600080fd5b61201089838a01611ebb565b9350608088013591508082111561202657600080fd5b5061203388828901611f26565b9150509295509295909350565b6000806040838503121561205357600080fd5b61205c83611cac565b91506020830135801515811461207157600080fd5b809150509250929050565b6000806040838503121561208f57600080fd5b823567ffffffffffffffff808211156120a757600080fd5b818501915085601f8301126120bb57600080fd5b813560206120cb611edc83611e97565b82815260059290921b840181019181810190898411156120ea57600080fd5b948201945b8386101561210f5761210086611cac565b825294820194908201906120ef565b9650508601359250508082111561212557600080fd5b5061213285828601611ebb565b9150509250929050565b600081518084526020808501945080840160005b8381101561216c57815187529582019590820190600101612150565b509495945050505050565b602081526000611d0d602083018461213c565b6000806040838503121561219d57600080fd5b823567ffffffffffffffff808211156121b557600080fd5b6121c186838701611ebb565b9350602085013591508082111561212557600080fd5b600080604083850312156121ea57600080fd5b6121f383611cac565b915061220160208401611cac565b90509250929050565b600080600080600060a0868803121561222257600080fd5b61222b86611cac565b945061223960208701611cac565b93506040860135925060608601359150608086013567ffffffffffffffff81111561226357600080fd5b61203388828901611f26565b634e487b7160e01b600052603260045260246000fd5b634e487b7160e01b600052601160045260246000fd5b8181038181111561065057610650612285565b8082018082111561065057610650612285565b6000600182016122d3576122d3612285565b5060010190565b600181811c908216806122ee57607f821691505b60208210810361230e57634e487b7160e01b600052602260045260246000fd5b50919050565b808202811582820484141761065057610650612285565b634e487b7160e01b600052601260045260246000fd5b6000826123505761235061232b565b500490565b6000826123645761236461232b565b500690565b60408152600061237c604083018561213c565b828103602084015261238e818561213c565b95945050505050565b6001600160a01b03868116825285166020820152604081018490526060810183905260a0608082018190526000906123d190830184611dd5565b979650505050505050565b6000602082840312156123ee57600080fd5b8151611d0d81611d14565b6001600160a01b0386811682528516602082015260a0604082018190526000906124259083018661213c565b8281036060840152612437818661213c565b9050828103608084015261244b8185611dd5565b9897505050505050505056fea26469706673582212202ca3626d1be67d036d88d94a060e3cf809a8a61af7d419b456a6fa06f150681864736f6c6343000814003368747470733a2f2f6769746875622e636f6d2f6d6f6f6e73747265616d2d746f2f646567656e2d747261696c",
  "devdoc": {
    "author": "Moonstream Engineering (engineering@moonstream.to)",
    "errors": {
      "ERC1155InsufficientBalance(address,uint256,uint256,uint256)": [
        {
          "details": "Indicates an error related to the current `balance` of a `sender`. Used in transfers.",
          "params": {
            "balance": "Current balance for the interacting account.",
            "needed": "Minimum amount required to perform a transfer.",
            "sender": "Address whose tokens are being transferred.",
            "tokenId": "Identifier number of a token."
          }
        }
      ],
      "ERC1155InvalidApprover(address)": [
        {
          "details": "Indicates a failure with the `approver` of a token to be approved. Used in approvals.",
          "params": {
            "approver": "Address initiating an approval operation."
          }
        }
      ],
      "ERC1155InvalidArrayLength(uint256,uint256)": [
        {
          "details": "Indicates an array length mismatch between ids and values in a safeBatchTransferFrom operation. Used in batch transfers.",
          "params": {
            "idsLength": "Length of the array of token identifiers",
            "valuesLength": "Length of the array of token amounts"
          }
        }
      ],
      "ERC1155InvalidOperator(address)": [
        {
          "details": "Indicates a failure with the `operator` to be approved. Used in approvals.",
          "params": {
            "operator": "Address that may be allowed to operate on tokens without being their owner."
          }
        }
      ],
      "ERC1155InvalidReceiver(address)": [
        {
          "details": "Indicates a failure with the token `receiver`. Used in transfers.",
          "params": {
            "receiver": "Address to which tokens are being transferred."
          }
        }
      ],
      "ERC1155InvalidSender(address)": [
        {
          "details": "Indicates a failure with the token `sender`. Used in transfers.",
          "params": {
            "sender": "Address whose tokens are being transferred."
          }
        }
      ],
      "ERC1155MissingApprovalForAll(address,address)": [
        {
          "details": "Indicates a failure with the `operator`s approval. Used in transfers.",
          "params": {
            "operator": "Address that may be allowed to operate on tokens without being their owner.",
            "owner": "Address of the current owner of a token."
          }
        }
      ],
      "ReentrancyGuardReentrantCall()": [
        {
          "details": "Unauthorized reentrant call."
        }
      ]
    },
    "events": {
      "ApprovalForAll(address,address,bool)": {
        "details": "Emitted when `account` grants or revokes permission to `operator` to transfer their tokens, according to `approved`."
      },
      "TransferBatch(address,address,address,uint256[],uint256[])": {
        "details": "Equivalent to multiple {TransferSingle} events, where `operator`, `from` and `to` are the same for all transfers."
      },
      "TransferSingle(address,address,address,uint256,uint256)": {
        "details": "Emitted when `value` amount of tokens of type `id` are transferred from `from` to `to` by `operator`."
      },
      "URI(string,uint256)": {
        "details": "Emitted when the URI for token type `id` changes to `value`, if it is a non-programmatic URI. If an {URI} event was emitted for `id`, the standard https://eips.ethereum.org/EIPS/eip-1155#metadata-extensions[guarantees] that `value` will equal the value returned by {IERC1155MetadataURI-uri}."
      }
    },
    "kind": "dev",
    "methods": {
      "balanceOf(address,uint256)": {
        "details": "See {IERC1155-balanceOf}."
      },
      "balanceOfBatch(address[],uint256[])": {
        "details": "See {IERC1155-balanceOfBatch}. Requirements: - `accounts` and `ids` must have the same length."
      },
      "isApprovedForAll(address,address)": {
        "details": "See {IERC1155-isApprovedForAll}."
      },
      "safeBatchTransferFrom(address,address,uint256[],uint256[],bytes)": {
        "details": "See {IERC1155-safeBatchTransferFrom}."
      },
      "safeTransferFrom(address,address,uint256,uint256,bytes)": {
        "details": "See {IERC1155-safeTransferFrom}."
      },
      "setApprovalForAll(address,bool)": {
        "details": "See {IERC1155-setApprovalForAll}."
      },
      "supportsInterface(bytes4)": {
        "details": "See {IERC165-supportsInterface}."
      },
      "uri(uint256)": {
        "details": "See {IERC1155MetadataURI-uri}. This implementation returns the same URI for *all* token types. It relies on the token type ID substitution mechanism https://eips.ethereum.org/EIPS/eip-1155#metadata[defined in the EIP]. Clients calling this function must replace the `\\{id\\}` substring with the actual token type ID."
      }
    },
    "title": "Jackpot Junction game contract",
    "version": 1
  },
  "userdoc": {
    "kind": "user",
    "methods": {
      "EquippedBeasts(address)": {
        "notice": "EquippedBeasts indicates the poolID of the beasts that are currently equipped by the given player. The mapping is address(player) => poolID + 1. The value stored is poolID + 1 so that 0 indicates that no item is currently equipped in the slot."
      },
      "EquippedBody(address)": {
        "notice": "EquippedBody indicates the poolID of the body that is currently equipped by the given player. The mapping is address(player) => poolID + 1. The value stored is poolID + 1 so that 0 indicates that no item is currently equipped in the slot."
      },
      "EquippedCover(address)": {
        "notice": "EquippedCover indicates the poolID of the cover that is currently equipped by the given player. The mapping is address(player) => poolID + 1. The value stored is poolID + 1 so that 0 indicates that no item is currently equipped in the slot."
      },
      "EquippedWheels(address)": {
        "notice": "EquippedWheels indicates the poolID of the wheels that are currently equipped by the given player. The mapping is address(player) => poolID + 1. The value stored is poolID + 1 so that 0 indicates that no item is currently equipped in the slot."
      }
    },
    "notice": "This is the game contract for The Degen Trail: Jackpot Junction, a game in world of The Degen Trail.",
    "version": 1
  },
  "storageLayout": {
    "storage": [
      {
        "astId": 178,
        "contract": "src/JackpotJunction.sol:JackpotJunction",
        "label": "_balances",
        "offset": 0,
        "slot": "0",
        "type": "t_mapping(t_uint256,t_mapping(t_address,t_uint256))"
      },
      {
        "astId": 184,
        "contract": "src/JackpotJunction.sol:JackpotJunction",
        "label": "_operatorApprovals",
        "offset": 0,
        "slot": "1",
        "type": "t_mapping(t_address,t_mapping(t_address,t_bool))"
      },
      {
        "astId": 186,
        "contract": "src/JackpotJunction.sol:JackpotJunction",
        "label": "_uri",
        "offset": 0,
        "slot": "2",
        "type": "t_string_storage"
      },
      {
        "astId": 3837,
        "contract": "src/JackpotJunction.sol:JackpotJunction",
        "label": "_status",
        "offset": 0,
        "slot": "3",
        "type": "t_uint256"
      },
      {
        "astId": 6067,
        "contract": "src/JackpotJunction.sol:JackpotJunction",
        "label": "UnmodifiedOutcomesCumulativeMass",
        "offset": 0,
        "slot": "4",
        "type": "t_array(t_uint256)5_storage"
      },
      {
        "astId": 6097,
        "contract": "src/JackpotJunction.sol:JackpotJunction",
        "label": "ImprovedOutcomesCumulativeMass",
        "offset": 0,
        "slot": "9",
        "type": "t_array(t_uint256)5_storage"
      },
      {
        "astId": 6099,
        "contract": "src/JackpotJunction.sol:JackpotJunction",
        "label": "BlocksToAct",
        "offset": 0,
        "slot": "14",
        "type": "t_uint256"
      },
      {
        "astId": 6103,
        "contract": "src/JackpotJunction.sol:JackpotJunction",
        "label": "LastRollBlock",
        "offset": 0,
        "slot": "15",
        "type": "t_mapping(t_address,t_uint256)"
      },
      {
        "astId": 6105,
        "contract": "src/JackpotJunction.sol:JackpotJunction",
        "label": "CostToRoll",
        "offset": 0,
        "slot": "16",
        "type": "t_uint256"
      },
      {
        "astId": 6107,
        "contract": "src/JackpotJunction.sol:JackpotJunction",
        "label": "CostToReroll",
        "offset": 0,
        "slot": "17",
        "type": "t_uint256"
      },
      {
        "astId": 6113,
        "contract": "src/JackpotJunction.sol:JackpotJunction",
        "label": "CurrentTier",
        "offset": 0,
        "slot": "18",
        "type": "t_mapping(t_uint256,t_mapping(t_uint256,t_uint256))"
      },
      {
        "astId": 6118,
        "contract": "src/JackpotJunction.sol:JackpotJunction",
        "label": "EquippedCover",
        "offset": 0,
        "slot": "19",
        "type": "t_mapping(t_address,t_uint256)"
      },
      {
        "astId": 6123,
        "contract": "src/JackpotJunction.sol:JackpotJunction",
        "label": "EquippedBody",
        "offset": 0,
        "slot": "20",
        "type": "t_mapping(t_address,t_uint256)"
      },
      {
        "astId": 6128,
        "contract": "src/JackpotJunction.sol:JackpotJunction",
        "label": "EquippedWheels",
        "offset": 0,
        "slot": "21",
        "type": "t_mapping(t_address,t_uint256)"
      },
      {
        "astId": 6133,
        "contract": "src/JackpotJunction.sol:JackpotJunction",
        "label": "EquippedBeasts",
        "offset": 0,
        "slot": "22",
        "type": "t_mapping(t_address,t_uint256)"
      }
    ],
    "types": {
      "t_address": {
        "encoding": "inplace",
        "label": "address",
        "numberOfBytes": "20"
      },
      "t_array(t_uint256)5_storage": {
        "base": "t_uint256",
        "encoding": "inplace",
        "label": "uint256[5]",
        "numberOfBytes": "160"
      },
      "t_bool": {
        "encoding": "inplace",
        "label": "bool",
        "numberOfBytes": "1"
      },
      "t_mapping(t_address,t_bool)": {
        "encoding": "mapping",
        "key": "t_address",
        "label": "mapping(address => bool)",
        "numberOfBytes": "32",
        "value": "t_bool"
      },
      "t_mapping(t_address,t_mapping(t_address,t_bool))": {
        "encoding": "mapping",
        "key": "t_address",
        "label": "mapping(address => mapping(address => bool))",
        "numberOfBytes": "32",
        "value": "t_mapping(t_address,t_bool)"
      },
      "t_mapping(t_address,t_uint256)": {
        "encoding": "mapping",
        "key": "t_address",
        "label": "mapping(address => uint256)",
        "numberOfBytes": "32",
        "value": "t_uint256"
      },
      "t_mapping(t_uint256,t_mapping(t_address,t_uint256))": {
        "encoding": "mapping",
        "key": "t_uint256",
        "label": "mapping(uint256 => mapping(address => uint256))",
        "numberOfBytes": "32",
        "value": "t_mapping(t_address,t_uint256)"
      },
      "t_mapping(t_uint256,t_mapping(t_uint256,t_uint256))": {
        "encoding": "mapping",
        "key": "t_uint256",
        "label": "mapping(uint256 => mapping(uint256 => uint256))",
        "numberOfBytes": "32",
        "value": "t_mapping(t_uint256,t_uint256)"
      },
      "t_mapping(t_uint256,t_uint256)": {
        "encoding": "mapping",
        "key": "t_uint256",
        "label": "mapping(uint256 => uint256)",
        "numberOfBytes": "32",
        "value": "t_uint256"
      },
      "t_string_storage": {
        "encoding": "bytes",
        "label": "string",
        "numberOfBytes": "32"
      },
      "t_uint256": {
        "encoding": "inplace",
        "label": "uint256",
        "numberOfBytes": "32"
      }
    }
  }
}